{
    "_format": "hh-sol-artifact-1",
    "contractName": "ImpactoV4",
    "sourceName": "contracts/ImpactoV4.sol",
    "abi": [
        {
            "inputs": [
                {
                    "internalType": "string",
                    "name": "_name",
                    "type": "string"
                },
                {
                    "internalType": "string",
                    "name": "_symbol",
                    "type": "string"
                },
                {
                    "internalType": "string",
                    "name": "_initNotRevealedUri",
                    "type": "string"
                }
            ],
            "stateMutability": "nonpayable",
            "type": "constructor"
        },
        {
            "anonymous": false,
            "inputs": [
                {
                    "indexed": true,
                    "internalType": "address",
                    "name": "owner",
                    "type": "address"
                },
                {
                    "indexed": true,
                    "internalType": "address",
                    "name": "approved",
                    "type": "address"
                },
                {
                    "indexed": true,
                    "internalType": "uint256",
                    "name": "tokenId",
                    "type": "uint256"
                }
            ],
            "name": "Approval",
            "type": "event"
        },
        {
            "anonymous": false,
            "inputs": [
                {
                    "indexed": true,
                    "internalType": "address",
                    "name": "owner",
                    "type": "address"
                },
                {
                    "indexed": true,
                    "internalType": "address",
                    "name": "operator",
                    "type": "address"
                },
                {
                    "indexed": false,
                    "internalType": "bool",
                    "name": "approved",
                    "type": "bool"
                }
            ],
            "name": "ApprovalForAll",
            "type": "event"
        },
        {
            "anonymous": false,
            "inputs": [
                {
                    "indexed": true,
                    "internalType": "address",
                    "name": "previousOwner",
                    "type": "address"
                },
                {
                    "indexed": true,
                    "internalType": "address",
                    "name": "newOwner",
                    "type": "address"
                }
            ],
            "name": "OwnershipTransferred",
            "type": "event"
        },
        {
            "anonymous": false,
            "inputs": [
                {
                    "indexed": true,
                    "internalType": "address",
                    "name": "from",
                    "type": "address"
                },
                {
                    "indexed": true,
                    "internalType": "address",
                    "name": "to",
                    "type": "address"
                },
                {
                    "indexed": true,
                    "internalType": "uint256",
                    "name": "tokenId",
                    "type": "uint256"
                }
            ],
            "name": "Transfer",
            "type": "event"
        },
        {
            "inputs": [
                {
                    "internalType": "address",
                    "name": "to",
                    "type": "address"
                },
                {
                    "internalType": "uint256",
                    "name": "tokenId",
                    "type": "uint256"
                }
            ],
            "name": "approve",
            "outputs": [],
            "stateMutability": "nonpayable",
            "type": "function"
        },
        {
            "inputs": [
                {
                    "internalType": "address",
                    "name": "owner",
                    "type": "address"
                }
            ],
            "name": "balanceOf",
            "outputs": [
                {
                    "internalType": "uint256",
                    "name": "",
                    "type": "uint256"
                }
            ],
            "stateMutability": "view",
            "type": "function"
        },
        {
            "inputs": [],
            "name": "baseExtension",
            "outputs": [
                {
                    "internalType": "string",
                    "name": "",
                    "type": "string"
                }
            ],
            "stateMutability": "view",
            "type": "function"
        },
        {
            "inputs": [],
            "name": "cost",
            "outputs": [
                {
                    "internalType": "uint256",
                    "name": "",
                    "type": "uint256"
                }
            ],
            "stateMutability": "view",
            "type": "function"
        },
        {
            "inputs": [
                {
                    "internalType": "uint256",
                    "name": "tokenId",
                    "type": "uint256"
                }
            ],
            "name": "getApproved",
            "outputs": [
                {
                    "internalType": "address",
                    "name": "",
                    "type": "address"
                }
            ],
            "stateMutability": "view",
            "type": "function"
        },
        {
            "inputs": [
                {
                    "internalType": "address",
                    "name": "owner",
                    "type": "address"
                },
                {
                    "internalType": "address",
                    "name": "operator",
                    "type": "address"
                }
            ],
            "name": "isApprovedForAll",
            "outputs": [
                {
                    "internalType": "bool",
                    "name": "",
                    "type": "bool"
                }
            ],
            "stateMutability": "view",
            "type": "function"
        },
        {
            "inputs": [],
            "name": "maxMintAmount",
            "outputs": [
                {
                    "internalType": "uint256",
                    "name": "",
                    "type": "uint256"
                }
            ],
            "stateMutability": "view",
            "type": "function"
        },
        {
            "inputs": [],
            "name": "maxSupply",
            "outputs": [
                {
                    "internalType": "uint256",
                    "name": "",
                    "type": "uint256"
                }
            ],
            "stateMutability": "view",
            "type": "function"
        },
        {
            "inputs": [
                {
                    "internalType": "uint256",
                    "name": "_mintAmount",
                    "type": "uint256"
                }
            ],
            "name": "mint",
            "outputs": [],
            "stateMutability": "payable",
            "type": "function"
        },
        {
            "inputs": [],
            "name": "name",
            "outputs": [
                {
                    "internalType": "string",
                    "name": "",
                    "type": "string"
                }
            ],
            "stateMutability": "view",
            "type": "function"
        },
        {
            "inputs": [],
            "name": "owner",
            "outputs": [
                {
                    "internalType": "address",
                    "name": "",
                    "type": "address"
                }
            ],
            "stateMutability": "view",
            "type": "function"
        },
        {
            "inputs": [
                {
                    "internalType": "uint256",
                    "name": "tokenId",
                    "type": "uint256"
                }
            ],
            "name": "ownerOf",
            "outputs": [
                {
                    "internalType": "address",
                    "name": "",
                    "type": "address"
                }
            ],
            "stateMutability": "view",
            "type": "function"
        },
        {
            "inputs": [
                {
                    "internalType": "bool",
                    "name": "_state",
                    "type": "bool"
                }
            ],
            "name": "pause",
            "outputs": [],
            "stateMutability": "nonpayable",
            "type": "function"
        },
        {
            "inputs": [],
            "name": "paused",
            "outputs": [
                {
                    "internalType": "bool",
                    "name": "",
                    "type": "bool"
                }
            ],
            "stateMutability": "view",
            "type": "function"
        },
        {
            "inputs": [],
            "name": "renounceOwnership",
            "outputs": [],
            "stateMutability": "nonpayable",
            "type": "function"
        },
        {
            "inputs": [],
            "name": "reveal",
            "outputs": [],
            "stateMutability": "nonpayable",
            "type": "function"
        },
        {
            "inputs": [],
            "name": "revealed",
            "outputs": [
                {
                    "internalType": "bool",
                    "name": "",
                    "type": "bool"
                }
            ],
            "stateMutability": "view",
            "type": "function"
        },
        {
            "inputs": [
                {
                    "internalType": "address",
                    "name": "from",
                    "type": "address"
                },
                {
                    "internalType": "address",
                    "name": "to",
                    "type": "address"
                },
                {
                    "internalType": "uint256",
                    "name": "tokenId",
                    "type": "uint256"
                }
            ],
            "name": "safeTransferFrom",
            "outputs": [],
            "stateMutability": "nonpayable",
            "type": "function"
        },
        {
            "inputs": [
                {
                    "internalType": "address",
                    "name": "from",
                    "type": "address"
                },
                {
                    "internalType": "address",
                    "name": "to",
                    "type": "address"
                },
                {
                    "internalType": "uint256",
                    "name": "tokenId",
                    "type": "uint256"
                },
                {
                    "internalType": "bytes",
                    "name": "_data",
                    "type": "bytes"
                }
            ],
            "name": "safeTransferFrom",
            "outputs": [],
            "stateMutability": "nonpayable",
            "type": "function"
        },
        {
            "inputs": [
                {
                    "internalType": "address",
                    "name": "operator",
                    "type": "address"
                },
                {
                    "internalType": "bool",
                    "name": "approved",
                    "type": "bool"
                }
            ],
            "name": "setApprovalForAll",
            "outputs": [],
            "stateMutability": "nonpayable",
            "type": "function"
        },
        {
            "inputs": [
                {
                    "internalType": "string",
                    "name": "_newBaseExtension",
                    "type": "string"
                }
            ],
            "name": "setBaseExtension",
            "outputs": [],
            "stateMutability": "nonpayable",
            "type": "function"
        },
        {
            "inputs": [
                {
                    "internalType": "uint256",
                    "name": "_newCost",
                    "type": "uint256"
                }
            ],
            "name": "setCost",
            "outputs": [],
            "stateMutability": "nonpayable",
            "type": "function"
        },
        {
            "inputs": [
                {
                    "internalType": "string",
                    "name": "_notRevealedURI",
                    "type": "string"
                }
            ],
            "name": "setNotRevealedURI",
            "outputs": [],
            "stateMutability": "nonpayable",
            "type": "function"
        },
        {
            "inputs": [
                {
                    "internalType": "uint256",
                    "name": "_newmaxMintAmount",
                    "type": "uint256"
                }
            ],
            "name": "setmaxMintAmount",
            "outputs": [],
            "stateMutability": "nonpayable",
            "type": "function"
        },
        {
            "inputs": [
                {
                    "internalType": "bytes4",
                    "name": "interfaceId",
                    "type": "bytes4"
                }
            ],
            "name": "supportsInterface",
            "outputs": [
                {
                    "internalType": "bool",
                    "name": "",
                    "type": "bool"
                }
            ],
            "stateMutability": "view",
            "type": "function"
        },
        {
            "inputs": [],
            "name": "symbol",
            "outputs": [
                {
                    "internalType": "string",
                    "name": "",
                    "type": "string"
                }
            ],
            "stateMutability": "view",
            "type": "function"
        },
        {
            "inputs": [
                {
                    "internalType": "uint256",
                    "name": "index",
                    "type": "uint256"
                }
            ],
            "name": "tokenByIndex",
            "outputs": [
                {
                    "internalType": "uint256",
                    "name": "",
                    "type": "uint256"
                }
            ],
            "stateMutability": "view",
            "type": "function"
        },
        {
            "inputs": [
                {
                    "internalType": "address",
                    "name": "owner",
                    "type": "address"
                },
                {
                    "internalType": "uint256",
                    "name": "index",
                    "type": "uint256"
                }
            ],
            "name": "tokenOfOwnerByIndex",
            "outputs": [
                {
                    "internalType": "uint256",
                    "name": "",
                    "type": "uint256"
                }
            ],
            "stateMutability": "view",
            "type": "function"
        },
        {
            "inputs": [
                {
                    "internalType": "uint256",
                    "name": "tokenId",
                    "type": "uint256"
                }
            ],
            "name": "tokenURI",
            "outputs": [
                {
                    "internalType": "string",
                    "name": "",
                    "type": "string"
                }
            ],
            "stateMutability": "view",
            "type": "function"
        },
        {
            "inputs": [],
            "name": "totalSupply",
            "outputs": [
                {
                    "internalType": "uint256",
                    "name": "",
                    "type": "uint256"
                }
            ],
            "stateMutability": "view",
            "type": "function"
        },
        {
            "inputs": [
                {
                    "internalType": "address",
                    "name": "from",
                    "type": "address"
                },
                {
                    "internalType": "address",
                    "name": "to",
                    "type": "address"
                },
                {
                    "internalType": "uint256",
                    "name": "tokenId",
                    "type": "uint256"
                }
            ],
            "name": "transferFrom",
            "outputs": [],
            "stateMutability": "nonpayable",
            "type": "function"
        },
        {
            "inputs": [
                {
                    "internalType": "address",
                    "name": "newOwner",
                    "type": "address"
                }
            ],
            "name": "transferOwnership",
            "outputs": [],
            "stateMutability": "nonpayable",
            "type": "function"
        },
        {
            "inputs": [
                {
                    "internalType": "address",
                    "name": "_owner",
                    "type": "address"
                }
            ],
            "name": "walletOfOwner",
            "outputs": [
                {
                    "internalType": "uint256[]",
                    "name": "",
                    "type": "uint256[]"
                }
            ],
            "stateMutability": "view",
            "type": "function"
        },
        {
            "inputs": [],
            "name": "withdraw",
            "outputs": [],
            "stateMutability": "payable",
            "type": "function"
        }
    ],
    "bytecode": "0x60806040526040518060400160405280600581526020017f2e6a736f6e000000000000000000000000000000000000000000000000000000815250600c908051906020019062000051929190620002e2565b50655af3107a4000600d55600a600e556001600f556000601060006101000a81548160ff0219169083151502179055506000601060016101000a81548160ff021916908315150217905550348015620000a957600080fd5b5060405162004531380380620045318339818101604052810190620000cf919062000404565b82828160009080519060200190620000e9929190620002e2565b50806001908051906020019062000102929190620002e2565b50505062000125620001196200013f60201b60201c565b6200014760201b60201c565b62000136816200020d60201b60201c565b50505062000698565b600033905090565b6000600a60009054906101000a900473ffffffffffffffffffffffffffffffffffffffff16905081600a60006101000a81548173ffffffffffffffffffffffffffffffffffffffff021916908373ffffffffffffffffffffffffffffffffffffffff1602179055508173ffffffffffffffffffffffffffffffffffffffff168173ffffffffffffffffffffffffffffffffffffffff167f8be0079c531659141344cd1fd0a4f28419497f9722a3daafe3b4186f6b6457e060405160405180910390a35050565b6200021d6200013f60201b60201c565b73ffffffffffffffffffffffffffffffffffffffff1662000243620002b860201b60201c565b73ffffffffffffffffffffffffffffffffffffffff16146200029c576040517f08c379a00000000000000000000000000000000000000000000000000000000081526004016200029390620004cc565b60405180910390fd5b80600b9080519060200190620002b4929190620002e2565b5050565b6000600a60009054906101000a900473ffffffffffffffffffffffffffffffffffffffff16905090565b828054620002f09062000594565b90600052602060002090601f01602090048101928262000314576000855562000360565b82601f106200032f57805160ff191683800117855562000360565b8280016001018555821562000360579182015b828111156200035f57825182559160200191906001019062000342565b5b5090506200036f919062000373565b5090565b5b808211156200038e57600081600090555060010162000374565b5090565b6000620003a9620003a38462000517565b620004ee565b905082815260208101848484011115620003c257600080fd5b620003cf8482856200055e565b509392505050565b600082601f830112620003e957600080fd5b8151620003fb84826020860162000392565b91505092915050565b6000806000606084860312156200041a57600080fd5b600084015167ffffffffffffffff8111156200043557600080fd5b6200044386828701620003d7565b935050602084015167ffffffffffffffff8111156200046157600080fd5b6200046f86828701620003d7565b925050604084015167ffffffffffffffff8111156200048d57600080fd5b6200049b86828701620003d7565b9150509250925092565b6000620004b46020836200054d565b9150620004c1826200066f565b602082019050919050565b60006020820190508181036000830152620004e781620004a5565b9050919050565b6000620004fa6200050d565b9050620005088282620005ca565b919050565b6000604051905090565b600067ffffffffffffffff8211156200053557620005346200062f565b5b62000540826200065e565b9050602081019050919050565b600082825260208201905092915050565b60005b838110156200057e57808201518184015260208101905062000561565b838111156200058e576000848401525b50505050565b60006002820490506001821680620005ad57607f821691505b60208210811415620005c457620005c362000600565b5b50919050565b620005d5826200065e565b810181811067ffffffffffffffff82111715620005f757620005f66200062f565b5b80604052505050565b7f4e487b7100000000000000000000000000000000000000000000000000000000600052602260045260246000fd5b7f4e487b7100000000000000000000000000000000000000000000000000000000600052604160045260246000fd5b6000601f19601f8301169050919050565b7f4f776e61626c653a2063616c6c6572206973206e6f7420746865206f776e6572600082015250565b613e8980620006a86000396000f3fe6080604052600436106101f95760003560e01c80636352211e1161010d578063a475b5dd116100a0578063d5abeb011161006f578063d5abeb0114610705578063da3ef23f14610730578063e985e9c514610759578063f2c4ce1e14610796578063f2fde38b146107bf576101f9565b8063a475b5dd1461065d578063b88d4fde14610674578063c66828621461069d578063c87b56dd146106c8576101f9565b80638da5cb5b116100dc5780638da5cb5b146105c257806395d89b41146105ed578063a0712d6814610618578063a22cb46514610634576101f9565b80636352211e1461050857806370a0823114610545578063715018a6146105825780637f00c7a614610599576101f9565b806323b872dd11610190578063438b63001161015f578063438b63001461040f57806344a0d68a1461044c5780634f6ccce71461047557806351830227146104b25780635c975abb146104dd576101f9565b806323b872dd146103765780632f745c591461039f5780633ccfd60b146103dc57806342842e0e146103e6576101f9565b8063095ea7b3116101cc578063095ea7b3146102cc57806313faede6146102f557806318160ddd14610320578063239c70ae1461034b576101f9565b806301ffc9a7146101fe57806302329a291461023b57806306fdde0314610264578063081812fc1461028f575b600080fd5b34801561020a57600080fd5b5061022560048036038101906102209190612d68565b6107e8565b604051610232919061327f565b60405180910390f35b34801561024757600080fd5b50610262600480360381019061025d9190612d3f565b610862565b005b34801561027057600080fd5b506102796108fb565b604051610286919061329a565b60405180910390f35b34801561029b57600080fd5b506102b660048036038101906102b19190612dfb565b61098d565b6040516102c391906131f6565b60405180910390f35b3480156102d857600080fd5b506102f360048036038101906102ee9190612d03565b610a12565b005b34801561030157600080fd5b5061030a610b2a565b60405161031791906134fc565b60405180910390f35b34801561032c57600080fd5b50610335610b30565b60405161034291906134fc565b60405180910390f35b34801561035757600080fd5b50610360610b3d565b60405161036d91906134fc565b60405180910390f35b34801561038257600080fd5b5061039d60048036038101906103989190612bfd565b610b43565b005b3480156103ab57600080fd5b506103c660048036038101906103c19190612d03565b610ba3565b6040516103d391906134fc565b60405180910390f35b6103e4610c48565b005b3480156103f257600080fd5b5061040d60048036038101906104089190612bfd565b610d44565b005b34801561041b57600080fd5b5061043660048036038101906104319190612b98565b610d64565b604051610443919061325d565b60405180910390f35b34801561045857600080fd5b50610473600480360381019061046e9190612dfb565b610e5e565b005b34801561048157600080fd5b5061049c60048036038101906104979190612dfb565b610ee4565b6040516104a991906134fc565b60405180910390f35b3480156104be57600080fd5b506104c7610f7b565b6040516104d4919061327f565b60405180910390f35b3480156104e957600080fd5b506104f2610f8e565b6040516104ff919061327f565b60405180910390f35b34801561051457600080fd5b5061052f600480360381019061052a9190612dfb565b610fa1565b60405161053c91906131f6565b60405180910390f35b34801561055157600080fd5b5061056c60048036038101906105679190612b98565b611053565b60405161057991906134fc565b60405180910390f35b34801561058e57600080fd5b5061059761110b565b005b3480156105a557600080fd5b506105c060048036038101906105bb9190612dfb565b611193565b005b3480156105ce57600080fd5b506105d7611219565b6040516105e491906131f6565b60405180910390f35b3480156105f957600080fd5b50610602611243565b60405161060f919061329a565b60405180910390f35b610632600480360381019061062d9190612dfb565b6112d5565b005b34801561064057600080fd5b5061065b60048036038101906106569190612cc7565b6113c1565b005b34801561066957600080fd5b50610672611542565b005b34801561068057600080fd5b5061069b60048036038101906106969190612c4c565b6115db565b005b3480156106a957600080fd5b506106b261163d565b6040516106bf919061329a565b60405180910390f35b3480156106d457600080fd5b506106ef60048036038101906106ea9190612dfb565b6116cb565b6040516106fc919061329a565b60405180910390f35b34801561071157600080fd5b5061071a6117a7565b60405161072791906134fc565b60405180910390f35b34801561073c57600080fd5b5061075760048036038101906107529190612dba565b6117ad565b005b34801561076557600080fd5b50610780600480360381019061077b9190612bc1565b611843565b60405161078d919061327f565b60405180910390f35b3480156107a257600080fd5b506107bd60048036038101906107b89190612dba565b6118d7565b005b3480156107cb57600080fd5b506107e660048036038101906107e19190612b98565b61196d565b005b60007f780e9d63000000000000000000000000000000000000000000000000000000007bffffffffffffffffffffffffffffffffffffffffffffffffffffffff1916827bffffffffffffffffffffffffffffffffffffffffffffffffffffffff1916148061085b575061085a82611a65565b5b9050919050565b61086a611b47565b73ffffffffffffffffffffffffffffffffffffffff16610888611219565b73ffffffffffffffffffffffffffffffffffffffff16146108de576040517f08c379a00000000000000000000000000000000000000000000000000000000081526004016108d59061343c565b60405180910390fd5b80601060006101000a81548160ff02191690831515021790555050565b60606000805461090a906137b4565b80601f0160208091040260200160405190810160405280929190818152602001828054610936906137b4565b80156109835780601f1061095857610100808354040283529160200191610983565b820191906000526020600020905b81548152906001019060200180831161096657829003601f168201915b5050505050905090565b600061099882611b4f565b6109d7576040517f08c379a00000000000000000000000000000000000000000000000000000000081526004016109ce9061341c565b60405180910390fd5b6004600083815260200190815260200160002060009054906101000a900473ffffffffffffffffffffffffffffffffffffffff169050919050565b6000610a1d82610fa1565b90508073ffffffffffffffffffffffffffffffffffffffff168373ffffffffffffffffffffffffffffffffffffffff161415610a8e576040517f08c379a0000000000000000000000000000000000000000000000000000000008152600401610a859061349c565b60405180910390fd5b8073ffffffffffffffffffffffffffffffffffffffff16610aad611b47565b73ffffffffffffffffffffffffffffffffffffffff161480610adc5750610adb81610ad6611b47565b611843565b5b610b1b576040517f08c379a0000000000000000000000000000000000000000000000000000000008152600401610b129061339c565b60405180910390fd5b610b258383611bbb565b505050565b600d5481565b6000600880549050905090565b600f5481565b610b54610b4e611b47565b82611c74565b610b93576040517f08c379a0000000000000000000000000000000000000000000000000000000008152600401610b8a906134bc565b60405180910390fd5b610b9e838383611d52565b505050565b6000610bae83611053565b8210610bef576040517f08c379a0000000000000000000000000000000000000000000000000000000008152600401610be6906132bc565b60405180910390fd5b600660008473ffffffffffffffffffffffffffffffffffffffff1673ffffffffffffffffffffffffffffffffffffffff168152602001908152602001600020600083815260200190815260200160002054905092915050565b610c50611b47565b73ffffffffffffffffffffffffffffffffffffffff16610c6e611219565b73ffffffffffffffffffffffffffffffffffffffff1614610cc4576040517f08c379a0000000000000000000000000000000000000000000000000000000008152600401610cbb9061343c565b60405180910390fd5b6000610cce611219565b73ffffffffffffffffffffffffffffffffffffffff1647604051610cf1906131e1565b60006040518083038185875af1925050503d8060008114610d2e576040519150601f19603f3d011682016040523d82523d6000602084013e610d33565b606091505b5050905080610d4157600080fd5b50565b610d5f838383604051806020016040528060008152506115db565b505050565b60606000610d7183611053565b905060008167ffffffffffffffff811115610db5577f4e487b7100000000000000000000000000000000000000000000000000000000600052604160045260246000fd5b604051908082528060200260200182016040528015610de35781602001602082028036833780820191505090505b50905060005b82811015610e5357610dfb8582610ba3565b828281518110610e34577f4e487b7100000000000000000000000000000000000000000000000000000000600052603260045260246000fd5b6020026020010181815250508080610e4b90613817565b915050610de9565b508092505050919050565b610e66611b47565b73ffffffffffffffffffffffffffffffffffffffff16610e84611219565b73ffffffffffffffffffffffffffffffffffffffff1614610eda576040517f08c379a0000000000000000000000000000000000000000000000000000000008152600401610ed19061343c565b60405180910390fd5b80600d8190555050565b6000610eee610b30565b8210610f2f576040517f08c379a0000000000000000000000000000000000000000000000000000000008152600401610f26906134dc565b60405180910390fd5b60088281548110610f69577f4e487b7100000000000000000000000000000000000000000000000000000000600052603260045260246000fd5b90600052602060002001549050919050565b601060019054906101000a900460ff1681565b601060009054906101000a900460ff1681565b6000806002600084815260200190815260200160002060009054906101000a900473ffffffffffffffffffffffffffffffffffffffff169050600073ffffffffffffffffffffffffffffffffffffffff168173ffffffffffffffffffffffffffffffffffffffff16141561104a576040517f08c379a0000000000000000000000000000000000000000000000000000000008152600401611041906133dc565b60405180910390fd5b80915050919050565b60008073ffffffffffffffffffffffffffffffffffffffff168273ffffffffffffffffffffffffffffffffffffffff1614156110c4576040517f08c379a00000000000000000000000000000000000000000000000000000000081526004016110bb906133bc565b60405180910390fd5b600360008373ffffffffffffffffffffffffffffffffffffffff1673ffffffffffffffffffffffffffffffffffffffff168152602001908152602001600020549050919050565b611113611b47565b73ffffffffffffffffffffffffffffffffffffffff16611131611219565b73ffffffffffffffffffffffffffffffffffffffff1614611187576040517f08c379a000000000000000000000000000000000000000000000000000000000815260040161117e9061343c565b60405180910390fd5b6111916000611fae565b565b61119b611b47565b73ffffffffffffffffffffffffffffffffffffffff166111b9611219565b73ffffffffffffffffffffffffffffffffffffffff161461120f576040517f08c379a00000000000000000000000000000000000000000000000000000000081526004016112069061343c565b60405180910390fd5b80600f8190555050565b6000600a60009054906101000a900473ffffffffffffffffffffffffffffffffffffffff16905090565b606060018054611252906137b4565b80601f016020809104026020016040519081016040528092919081815260200182805461127e906137b4565b80156112cb5780601f106112a0576101008083540402835291602001916112cb565b820191906000526020600020905b8154815290600101906020018083116112ae57829003601f168201915b5050505050905090565b60006112df610b30565b9050601060009054906101000a900460ff16156112fb57600080fd5b6000821161130857600080fd5b600f5482111561131757600080fd5b600e548282611326919061361a565b111561133157600080fd5b611339611219565b73ffffffffffffffffffffffffffffffffffffffff163373ffffffffffffffffffffffffffffffffffffffff16146113865781600d546113799190613670565b34101561138557600080fd5b5b6000600190505b8281116113bc576113a93382846113a4919061361a565b612074565b80806113b490613817565b91505061138d565b505050565b6113c9611b47565b73ffffffffffffffffffffffffffffffffffffffff168273ffffffffffffffffffffffffffffffffffffffff161415611437576040517f08c379a000000000000000000000000000000000000000000000000000000000815260040161142e9061335c565b60405180910390fd5b8060056000611444611b47565b73ffffffffffffffffffffffffffffffffffffffff1673ffffffffffffffffffffffffffffffffffffffff16815260200190815260200160002060008473ffffffffffffffffffffffffffffffffffffffff1673ffffffffffffffffffffffffffffffffffffffff16815260200190815260200160002060006101000a81548160ff0219169083151502179055508173ffffffffffffffffffffffffffffffffffffffff166114f1611b47565b73ffffffffffffffffffffffffffffffffffffffff167f17307eab39ab6107e8899845ad3d59bd9653f200f220920489ca2b5937696c3183604051611536919061327f565b60405180910390a35050565b61154a611b47565b73ffffffffffffffffffffffffffffffffffffffff16611568611219565b73ffffffffffffffffffffffffffffffffffffffff16146115be576040517f08c379a00000000000000000000000000000000000000000000000000000000081526004016115b59061343c565b60405180910390fd5b6001601060016101000a81548160ff021916908315150217905550565b6115ec6115e6611b47565b83611c74565b61162b576040517f08c379a0000000000000000000000000000000000000000000000000000000008152600401611622906134bc565b60405180910390fd5b61163784848484612092565b50505050565b600c805461164a906137b4565b80601f0160208091040260200160405190810160405280929190818152602001828054611676906137b4565b80156116c35780601f10611698576101008083540402835291602001916116c3565b820191906000526020600020905b8154815290600101906020018083116116a657829003601f168201915b505050505081565b60606116d682611b4f565b611715576040517f08c379a000000000000000000000000000000000000000000000000000000000815260040161170c9061347c565b60405180910390fd5b600b8054611722906137b4565b80601f016020809104026020016040519081016040528092919081815260200182805461174e906137b4565b801561179b5780601f106117705761010080835404028352916020019161179b565b820191906000526020600020905b81548152906001019060200180831161177e57829003601f168201915b50505050509050919050565b600e5481565b6117b5611b47565b73ffffffffffffffffffffffffffffffffffffffff166117d3611219565b73ffffffffffffffffffffffffffffffffffffffff1614611829576040517f08c379a00000000000000000000000000000000000000000000000000000000081526004016118209061343c565b60405180910390fd5b80600c908051906020019061183f9291906129bc565b5050565b6000600560008473ffffffffffffffffffffffffffffffffffffffff1673ffffffffffffffffffffffffffffffffffffffff16815260200190815260200160002060008373ffffffffffffffffffffffffffffffffffffffff1673ffffffffffffffffffffffffffffffffffffffff16815260200190815260200160002060009054906101000a900460ff16905092915050565b6118df611b47565b73ffffffffffffffffffffffffffffffffffffffff166118fd611219565b73ffffffffffffffffffffffffffffffffffffffff1614611953576040517f08c379a000000000000000000000000000000000000000000000000000000000815260040161194a9061343c565b60405180910390fd5b80600b90805190602001906119699291906129bc565b5050565b611975611b47565b73ffffffffffffffffffffffffffffffffffffffff16611993611219565b73ffffffffffffffffffffffffffffffffffffffff16146119e9576040517f08c379a00000000000000000000000000000000000000000000000000000000081526004016119e09061343c565b60405180910390fd5b600073ffffffffffffffffffffffffffffffffffffffff168173ffffffffffffffffffffffffffffffffffffffff161415611a59576040517f08c379a0000000000000000000000000000000000000000000000000000000008152600401611a50906132fc565b60405180910390fd5b611a6281611fae565b50565b60007f80ac58cd000000000000000000000000000000000000000000000000000000007bffffffffffffffffffffffffffffffffffffffffffffffffffffffff1916827bffffffffffffffffffffffffffffffffffffffffffffffffffffffff19161480611b3057507f5b5e139f000000000000000000000000000000000000000000000000000000007bffffffffffffffffffffffffffffffffffffffffffffffffffffffff1916827bffffffffffffffffffffffffffffffffffffffffffffffffffffffff1916145b80611b405750611b3f826120ee565b5b9050919050565b600033905090565b60008073ffffffffffffffffffffffffffffffffffffffff166002600084815260200190815260200160002060009054906101000a900473ffffffffffffffffffffffffffffffffffffffff1673ffffffffffffffffffffffffffffffffffffffff1614159050919050565b816004600083815260200190815260200160002060006101000a81548173ffffffffffffffffffffffffffffffffffffffff021916908373ffffffffffffffffffffffffffffffffffffffff160217905550808273ffffffffffffffffffffffffffffffffffffffff16611c2e83610fa1565b73ffffffffffffffffffffffffffffffffffffffff167f8c5be1e5ebec7d5bd14f71427d1e84f3dd0314c0f7b2291e5b200ac8c7c3b92560405160405180910390a45050565b6000611c7f82611b4f565b611cbe576040517f08c379a0000000000000000000000000000000000000000000000000000000008152600401611cb59061337c565b60405180910390fd5b6000611cc983610fa1565b90508073ffffffffffffffffffffffffffffffffffffffff168473ffffffffffffffffffffffffffffffffffffffff161480611d3857508373ffffffffffffffffffffffffffffffffffffffff16611d208461098d565b73ffffffffffffffffffffffffffffffffffffffff16145b80611d495750611d488185611843565b5b91505092915050565b8273ffffffffffffffffffffffffffffffffffffffff16611d7282610fa1565b73ffffffffffffffffffffffffffffffffffffffff1614611dc8576040517f08c379a0000000000000000000000000000000000000000000000000000000008152600401611dbf9061345c565b60405180910390fd5b600073ffffffffffffffffffffffffffffffffffffffff168273ffffffffffffffffffffffffffffffffffffffff161415611e38576040517f08c379a0000000000000000000000000000000000000000000000000000000008152600401611e2f9061333c565b60405180910390fd5b611e43838383612158565b611e4e600082611bbb565b6001600360008573ffffffffffffffffffffffffffffffffffffffff1673ffffffffffffffffffffffffffffffffffffffff1681526020019081526020016000206000828254611e9e91906136ca565b925050819055506001600360008473ffffffffffffffffffffffffffffffffffffffff1673ffffffffffffffffffffffffffffffffffffffff1681526020019081526020016000206000828254611ef5919061361a565b92505081905550816002600083815260200190815260200160002060006101000a81548173ffffffffffffffffffffffffffffffffffffffff021916908373ffffffffffffffffffffffffffffffffffffffff160217905550808273ffffffffffffffffffffffffffffffffffffffff168473ffffffffffffffffffffffffffffffffffffffff167fddf252ad1be2c89b69c2b068fc378daa952ba7f163c4a11628f55a4df523b3ef60405160405180910390a4505050565b6000600a60009054906101000a900473ffffffffffffffffffffffffffffffffffffffff16905081600a60006101000a81548173ffffffffffffffffffffffffffffffffffffffff021916908373ffffffffffffffffffffffffffffffffffffffff1602179055508173ffffffffffffffffffffffffffffffffffffffff168173ffffffffffffffffffffffffffffffffffffffff167f8be0079c531659141344cd1fd0a4f28419497f9722a3daafe3b4186f6b6457e060405160405180910390a35050565b61208e82826040518060200160405280600081525061226c565b5050565b61209d848484611d52565b6120a9848484846122c7565b6120e8576040517f08c379a00000000000000000000000000000000000000000000000000000000081526004016120df906132dc565b60405180910390fd5b50505050565b60007f01ffc9a7000000000000000000000000000000000000000000000000000000007bffffffffffffffffffffffffffffffffffffffffffffffffffffffff1916827bffffffffffffffffffffffffffffffffffffffffffffffffffffffff1916149050919050565b61216383838361245e565b600073ffffffffffffffffffffffffffffffffffffffff168373ffffffffffffffffffffffffffffffffffffffff1614156121a6576121a181612463565b6121e5565b8173ffffffffffffffffffffffffffffffffffffffff168373ffffffffffffffffffffffffffffffffffffffff16146121e4576121e383826124ac565b5b5b600073ffffffffffffffffffffffffffffffffffffffff168273ffffffffffffffffffffffffffffffffffffffff1614156122285761222381612619565b612267565b8273ffffffffffffffffffffffffffffffffffffffff168273ffffffffffffffffffffffffffffffffffffffff161461226657612265828261275c565b5b5b505050565b61227683836127db565b61228360008484846122c7565b6122c2576040517f08c379a00000000000000000000000000000000000000000000000000000000081526004016122b9906132dc565b60405180910390fd5b505050565b60006122e88473ffffffffffffffffffffffffffffffffffffffff166129a9565b15612451578373ffffffffffffffffffffffffffffffffffffffff1663150b7a02612311611b47565b8786866040518563ffffffff1660e01b81526004016123339493929190613211565b602060405180830381600087803b15801561234d57600080fd5b505af192505050801561237e57506040513d601f19601f8201168201806040525081019061237b9190612d91565b60015b612401573d80600081146123ae576040519150601f19603f3d011682016040523d82523d6000602084013e6123b3565b606091505b506000815114156123f9576040517f08c379a00000000000000000000000000000000000000000000000000000000081526004016123f0906132dc565b60405180910390fd5b805181602001fd5b63150b7a0260e01b7bffffffffffffffffffffffffffffffffffffffffffffffffffffffff1916817bffffffffffffffffffffffffffffffffffffffffffffffffffffffff191614915050612456565b600190505b949350505050565b505050565b6008805490506009600083815260200190815260200160002081905550600881908060018154018082558091505060019003906000526020600020016000909190919091505550565b600060016124b984611053565b6124c391906136ca565b90506000600760008481526020019081526020016000205490508181146125a8576000600660008673ffffffffffffffffffffffffffffffffffffffff1673ffffffffffffffffffffffffffffffffffffffff168152602001908152602001600020600084815260200190815260200160002054905080600660008773ffffffffffffffffffffffffffffffffffffffff1673ffffffffffffffffffffffffffffffffffffffff168152602001908152602001600020600084815260200190815260200160002081905550816007600083815260200190815260200160002081905550505b6007600084815260200190815260200160002060009055600660008573ffffffffffffffffffffffffffffffffffffffff1673ffffffffffffffffffffffffffffffffffffffff16815260200190815260200160002060008381526020019081526020016000206000905550505050565b6000600160088054905061262d91906136ca565b9050600060096000848152602001908152602001600020549050600060088381548110612683577f4e487b7100000000000000000000000000000000000000000000000000000000600052603260045260246000fd5b9060005260206000200154905080600883815481106126cb577f4e487b7100000000000000000000000000000000000000000000000000000000600052603260045260246000fd5b906000526020600020018190555081600960008381526020019081526020016000208190555060096000858152602001908152602001600020600090556008805480612740577f4e487b7100000000000000000000000000000000000000000000000000000000600052603160045260246000fd5b6001900381819060005260206000200160009055905550505050565b600061276783611053565b905081600660008573ffffffffffffffffffffffffffffffffffffffff1673ffffffffffffffffffffffffffffffffffffffff168152602001908152602001600020600083815260200190815260200160002081905550806007600084815260200190815260200160002081905550505050565b600073ffffffffffffffffffffffffffffffffffffffff168273ffffffffffffffffffffffffffffffffffffffff16141561284b576040517f08c379a0000000000000000000000000000000000000000000000000000000008152600401612842906133fc565b60405180910390fd5b61285481611b4f565b15612894576040517f08c379a000000000000000000000000000000000000000000000000000000000815260040161288b9061331c565b60405180910390fd5b6128a060008383612158565b6001600360008473ffffffffffffffffffffffffffffffffffffffff1673ffffffffffffffffffffffffffffffffffffffff16815260200190815260200160002060008282546128f0919061361a565b92505081905550816002600083815260200190815260200160002060006101000a81548173ffffffffffffffffffffffffffffffffffffffff021916908373ffffffffffffffffffffffffffffffffffffffff160217905550808273ffffffffffffffffffffffffffffffffffffffff16600073ffffffffffffffffffffffffffffffffffffffff167fddf252ad1be2c89b69c2b068fc378daa952ba7f163c4a11628f55a4df523b3ef60405160405180910390a45050565b600080823b905060008111915050919050565b8280546129c8906137b4565b90600052602060002090601f0160209004810192826129ea5760008555612a31565b82601f10612a0357805160ff1916838001178555612a31565b82800160010185558215612a31579182015b82811115612a30578251825591602001919060010190612a15565b5b509050612a3e9190612a42565b5090565b5b80821115612a5b576000816000905550600101612a43565b5090565b6000612a72612a6d8461353c565b613517565b905082815260208101848484011115612a8a57600080fd5b612a95848285613772565b509392505050565b6000612ab0612aab8461356d565b613517565b905082815260208101848484011115612ac857600080fd5b612ad3848285613772565b509392505050565b600081359050612aea81613df7565b92915050565b600081359050612aff81613e0e565b92915050565b600081359050612b1481613e25565b92915050565b600081519050612b2981613e25565b92915050565b600082601f830112612b4057600080fd5b8135612b50848260208601612a5f565b91505092915050565b600082601f830112612b6a57600080fd5b8135612b7a848260208601612a9d565b91505092915050565b600081359050612b9281613e3c565b92915050565b600060208284031215612baa57600080fd5b6000612bb884828501612adb565b91505092915050565b60008060408385031215612bd457600080fd5b6000612be285828601612adb565b9250506020612bf385828601612adb565b9150509250929050565b600080600060608486031215612c1257600080fd5b6000612c2086828701612adb565b9350506020612c3186828701612adb565b9250506040612c4286828701612b83565b9150509250925092565b60008060008060808587031215612c6257600080fd5b6000612c7087828801612adb565b9450506020612c8187828801612adb565b9350506040612c9287828801612b83565b925050606085013567ffffffffffffffff811115612caf57600080fd5b612cbb87828801612b2f565b91505092959194509250565b60008060408385031215612cda57600080fd5b6000612ce885828601612adb565b9250506020612cf985828601612af0565b9150509250929050565b60008060408385031215612d1657600080fd5b6000612d2485828601612adb565b9250506020612d3585828601612b83565b9150509250929050565b600060208284031215612d5157600080fd5b6000612d5f84828501612af0565b91505092915050565b600060208284031215612d7a57600080fd5b6000612d8884828501612b05565b91505092915050565b600060208284031215612da357600080fd5b6000612db184828501612b1a565b91505092915050565b600060208284031215612dcc57600080fd5b600082013567ffffffffffffffff811115612de657600080fd5b612df284828501612b59565b91505092915050565b600060208284031215612e0d57600080fd5b6000612e1b84828501612b83565b91505092915050565b6000612e3083836131c3565b60208301905092915050565b612e45816136fe565b82525050565b6000612e56826135ae565b612e6081856135dc565b9350612e6b8361359e565b8060005b83811015612e9c578151612e838882612e24565b9750612e8e836135cf565b925050600181019050612e6f565b5085935050505092915050565b612eb281613710565b82525050565b6000612ec3826135b9565b612ecd81856135ed565b9350612edd818560208601613781565b612ee6816138ed565b840191505092915050565b6000612efc826135c4565b612f068185613609565b9350612f16818560208601613781565b612f1f816138ed565b840191505092915050565b6000612f37602b83613609565b9150612f42826138fe565b604082019050919050565b6000612f5a603283613609565b9150612f658261394d565b604082019050919050565b6000612f7d602683613609565b9150612f888261399c565b604082019050919050565b6000612fa0601c83613609565b9150612fab826139eb565b602082019050919050565b6000612fc3602483613609565b9150612fce82613a14565b604082019050919050565b6000612fe6601983613609565b9150612ff182613a63565b602082019050919050565b6000613009602c83613609565b915061301482613a8c565b604082019050919050565b600061302c603883613609565b915061303782613adb565b604082019050919050565b600061304f602a83613609565b915061305a82613b2a565b604082019050919050565b6000613072602983613609565b915061307d82613b79565b604082019050919050565b6000613095602083613609565b91506130a082613bc8565b602082019050919050565b60006130b8602c83613609565b91506130c382613bf1565b604082019050919050565b60006130db602083613609565b91506130e682613c40565b602082019050919050565b60006130fe602983613609565b915061310982613c69565b604082019050919050565b6000613121602f83613609565b915061312c82613cb8565b604082019050919050565b6000613144602183613609565b915061314f82613d07565b604082019050919050565b60006131676000836135fe565b915061317282613d56565b600082019050919050565b600061318a603183613609565b915061319582613d59565b604082019050919050565b60006131ad602c83613609565b91506131b882613da8565b604082019050919050565b6131cc81613768565b82525050565b6131db81613768565b82525050565b60006131ec8261315a565b9150819050919050565b600060208201905061320b6000830184612e3c565b92915050565b60006080820190506132266000830187612e3c565b6132336020830186612e3c565b61324060408301856131d2565b81810360608301526132528184612eb8565b905095945050505050565b600060208201905081810360008301526132778184612e4b565b905092915050565b60006020820190506132946000830184612ea9565b92915050565b600060208201905081810360008301526132b48184612ef1565b905092915050565b600060208201905081810360008301526132d581612f2a565b9050919050565b600060208201905081810360008301526132f581612f4d565b9050919050565b6000602082019050818103600083015261331581612f70565b9050919050565b6000602082019050818103600083015261333581612f93565b9050919050565b6000602082019050818103600083015261335581612fb6565b9050919050565b6000602082019050818103600083015261337581612fd9565b9050919050565b6000602082019050818103600083015261339581612ffc565b9050919050565b600060208201905081810360008301526133b58161301f565b9050919050565b600060208201905081810360008301526133d581613042565b9050919050565b600060208201905081810360008301526133f581613065565b9050919050565b6000602082019050818103600083015261341581613088565b9050919050565b60006020820190508181036000830152613435816130ab565b9050919050565b60006020820190508181036000830152613455816130ce565b9050919050565b60006020820190508181036000830152613475816130f1565b9050919050565b6000602082019050818103600083015261349581613114565b9050919050565b600060208201905081810360008301526134b581613137565b9050919050565b600060208201905081810360008301526134d58161317d565b9050919050565b600060208201905081810360008301526134f5816131a0565b9050919050565b600060208201905061351160008301846131d2565b92915050565b6000613521613532565b905061352d82826137e6565b919050565b6000604051905090565b600067ffffffffffffffff821115613557576135566138be565b5b613560826138ed565b9050602081019050919050565b600067ffffffffffffffff821115613588576135876138be565b5b613591826138ed565b9050602081019050919050565b6000819050602082019050919050565b600081519050919050565b600081519050919050565b600081519050919050565b6000602082019050919050565b600082825260208201905092915050565b600082825260208201905092915050565b600081905092915050565b600082825260208201905092915050565b600061362582613768565b915061363083613768565b9250827fffffffffffffffffffffffffffffffffffffffffffffffffffffffffffffffff0382111561366557613664613860565b5b828201905092915050565b600061367b82613768565b915061368683613768565b9250817fffffffffffffffffffffffffffffffffffffffffffffffffffffffffffffffff04831182151516156136bf576136be613860565b5b828202905092915050565b60006136d582613768565b91506136e083613768565b9250828210156136f3576136f2613860565b5b828203905092915050565b600061370982613748565b9050919050565b60008115159050919050565b60007fffffffff0000000000000000000000000000000000000000000000000000000082169050919050565b600073ffffffffffffffffffffffffffffffffffffffff82169050919050565b6000819050919050565b82818337600083830152505050565b60005b8381101561379f578082015181840152602081019050613784565b838111156137ae576000848401525b50505050565b600060028204905060018216806137cc57607f821691505b602082108114156137e0576137df61388f565b5b50919050565b6137ef826138ed565b810181811067ffffffffffffffff8211171561380e5761380d6138be565b5b80604052505050565b600061382282613768565b91507fffffffffffffffffffffffffffffffffffffffffffffffffffffffffffffffff82141561385557613854613860565b5b600182019050919050565b7f4e487b7100000000000000000000000000000000000000000000000000000000600052601160045260246000fd5b7f4e487b7100000000000000000000000000000000000000000000000000000000600052602260045260246000fd5b7f4e487b7100000000000000000000000000000000000000000000000000000000600052604160045260246000fd5b6000601f19601f8301169050919050565b7f455243373231456e756d657261626c653a206f776e657220696e646578206f7560008201527f74206f6620626f756e6473000000000000000000000000000000000000000000602082015250565b7f4552433732313a207472616e7366657220746f206e6f6e20455243373231526560008201527f63656976657220696d706c656d656e7465720000000000000000000000000000602082015250565b7f4f776e61626c653a206e6577206f776e657220697320746865207a65726f206160008201527f6464726573730000000000000000000000000000000000000000000000000000602082015250565b7f4552433732313a20746f6b656e20616c7265616479206d696e74656400000000600082015250565b7f4552433732313a207472616e7366657220746f20746865207a65726f2061646460008201527f7265737300000000000000000000000000000000000000000000000000000000602082015250565b7f4552433732313a20617070726f766520746f2063616c6c657200000000000000600082015250565b7f4552433732313a206f70657261746f7220717565727920666f72206e6f6e657860008201527f697374656e7420746f6b656e0000000000000000000000000000000000000000602082015250565b7f4552433732313a20617070726f76652063616c6c6572206973206e6f74206f7760008201527f6e6572206e6f7220617070726f76656420666f7220616c6c0000000000000000602082015250565b7f4552433732313a2062616c616e636520717565727920666f7220746865207a6560008201527f726f206164647265737300000000000000000000000000000000000000000000602082015250565b7f4552433732313a206f776e657220717565727920666f72206e6f6e657869737460008201527f656e7420746f6b656e0000000000000000000000000000000000000000000000602082015250565b7f4552433732313a206d696e7420746f20746865207a65726f2061646472657373600082015250565b7f4552433732313a20617070726f76656420717565727920666f72206e6f6e657860008201527f697374656e7420746f6b656e0000000000000000000000000000000000000000602082015250565b7f4f776e61626c653a2063616c6c6572206973206e6f7420746865206f776e6572600082015250565b7f4552433732313a207472616e73666572206f6620746f6b656e2074686174206960008201527f73206e6f74206f776e0000000000000000000000000000000000000000000000602082015250565b7f4552433732314d657461646174613a2055524920717565727920666f72206e6f60008201527f6e6578697374656e7420746f6b656e0000000000000000000000000000000000602082015250565b7f4552433732313a20617070726f76616c20746f2063757272656e74206f776e6560008201527f7200000000000000000000000000000000000000000000000000000000000000602082015250565b50565b7f4552433732313a207472616e736665722063616c6c6572206973206e6f74206f60008201527f776e6572206e6f7220617070726f766564000000000000000000000000000000602082015250565b7f455243373231456e756d657261626c653a20676c6f62616c20696e646578206f60008201527f7574206f6620626f756e64730000000000000000000000000000000000000000602082015250565b613e00816136fe565b8114613e0b57600080fd5b50565b613e1781613710565b8114613e2257600080fd5b50565b613e2e8161371c565b8114613e3957600080fd5b50565b613e4581613768565b8114613e5057600080fd5b5056fea2646970667358221220d77a89a9a31d8c250c0c69e3c3283d7ff64bd9f7447d5f645c716c0fd6b9a0dd64736f6c63430008020033",
    "linkReferences": {},
    "deployedLinkReferences": {}
}