{
  "_format": "hh-sol-artifact-1",
  "contractName": "ImpactoV6",
  "sourceName": "contracts/ImpactoV6.sol",
  "abi": [
    {
      "inputs": [],
      "stateMutability": "nonpayable",
      "type": "constructor"
    },
    {
      "anonymous": false,
      "inputs": [
        {
          "indexed": true,
          "internalType": "address",
          "name": "owner",
          "type": "address"
        },
        {
          "indexed": true,
          "internalType": "address",
          "name": "approved",
          "type": "address"
        },
        {
          "indexed": true,
          "internalType": "uint256",
          "name": "tokenId",
          "type": "uint256"
        }
      ],
      "name": "Approval",
      "type": "event"
    },
    {
      "anonymous": false,
      "inputs": [
        {
          "indexed": true,
          "internalType": "address",
          "name": "owner",
          "type": "address"
        },
        {
          "indexed": true,
          "internalType": "address",
          "name": "operator",
          "type": "address"
        },
        {
          "indexed": false,
          "internalType": "bool",
          "name": "approved",
          "type": "bool"
        }
      ],
      "name": "ApprovalForAll",
      "type": "event"
    },
    {
      "anonymous": false,
      "inputs": [
        {
          "indexed": true,
          "internalType": "address",
          "name": "previousOwner",
          "type": "address"
        },
        {
          "indexed": true,
          "internalType": "address",
          "name": "newOwner",
          "type": "address"
        }
      ],
      "name": "OwnershipTransferred",
      "type": "event"
    },
    {
      "anonymous": false,
      "inputs": [
        {
          "indexed": true,
          "internalType": "address",
          "name": "from",
          "type": "address"
        },
        {
          "indexed": true,
          "internalType": "address",
          "name": "to",
          "type": "address"
        },
        {
          "indexed": true,
          "internalType": "uint256",
          "name": "tokenId",
          "type": "uint256"
        }
      ],
      "name": "Transfer",
      "type": "event"
    },
    {
      "inputs": [
        {
          "internalType": "address",
          "name": "",
          "type": "address"
        }
      ],
      "name": "addressMintedBalance",
      "outputs": [
        {
          "internalType": "uint256",
          "name": "",
          "type": "uint256"
        }
      ],
      "stateMutability": "view",
      "type": "function"
    },
    {
      "inputs": [
        {
          "internalType": "address",
          "name": "to",
          "type": "address"
        },
        {
          "internalType": "uint256",
          "name": "tokenId",
          "type": "uint256"
        }
      ],
      "name": "approve",
      "outputs": [],
      "stateMutability": "nonpayable",
      "type": "function"
    },
    {
      "inputs": [
        {
          "internalType": "address",
          "name": "owner",
          "type": "address"
        }
      ],
      "name": "balanceOf",
      "outputs": [
        {
          "internalType": "uint256",
          "name": "",
          "type": "uint256"
        }
      ],
      "stateMutability": "view",
      "type": "function"
    },
    {
      "inputs": [],
      "name": "baseExtension",
      "outputs": [
        {
          "internalType": "string",
          "name": "",
          "type": "string"
        }
      ],
      "stateMutability": "view",
      "type": "function"
    },
    {
      "inputs": [
        {
          "internalType": "uint256",
          "name": "tokenId",
          "type": "uint256"
        }
      ],
      "name": "getApproved",
      "outputs": [
        {
          "internalType": "address",
          "name": "",
          "type": "address"
        }
      ],
      "stateMutability": "view",
      "type": "function"
    },
    {
      "inputs": [
        {
          "internalType": "address",
          "name": "owner",
          "type": "address"
        },
        {
          "internalType": "address",
          "name": "operator",
          "type": "address"
        }
      ],
      "name": "isApprovedForAll",
      "outputs": [
        {
          "internalType": "bool",
          "name": "",
          "type": "bool"
        }
      ],
      "stateMutability": "view",
      "type": "function"
    },
    {
      "inputs": [],
      "name": "maxMintAmount",
      "outputs": [
        {
          "internalType": "uint256",
          "name": "",
          "type": "uint256"
        }
      ],
      "stateMutability": "view",
      "type": "function"
    },
    {
      "inputs": [],
      "name": "maxSupply",
      "outputs": [
        {
          "internalType": "uint256",
          "name": "",
          "type": "uint256"
        }
      ],
      "stateMutability": "view",
      "type": "function"
    },
    {
      "inputs": [
        {
          "internalType": "uint256",
          "name": "_mintAmount",
          "type": "uint256"
        }
      ],
      "name": "mint",
      "outputs": [],
      "stateMutability": "payable",
      "type": "function"
    },
    {
      "inputs": [],
      "name": "name",
      "outputs": [
        {
          "internalType": "string",
          "name": "",
          "type": "string"
        }
      ],
      "stateMutability": "view",
      "type": "function"
    },
    {
      "inputs": [],
      "name": "owner",
      "outputs": [
        {
          "internalType": "address",
          "name": "",
          "type": "address"
        }
      ],
      "stateMutability": "view",
      "type": "function"
    },
    {
      "inputs": [
        {
          "internalType": "uint256",
          "name": "tokenId",
          "type": "uint256"
        }
      ],
      "name": "ownerOf",
      "outputs": [
        {
          "internalType": "address",
          "name": "",
          "type": "address"
        }
      ],
      "stateMutability": "view",
      "type": "function"
    },
    {
      "inputs": [
        {
          "internalType": "bool",
          "name": "_state",
          "type": "bool"
        }
      ],
      "name": "pause",
      "outputs": [],
      "stateMutability": "nonpayable",
      "type": "function"
    },
    {
      "inputs": [],
      "name": "paused",
      "outputs": [
        {
          "internalType": "bool",
          "name": "",
          "type": "bool"
        }
      ],
      "stateMutability": "view",
      "type": "function"
    },
    {
      "inputs": [],
      "name": "renounceOwnership",
      "outputs": [],
      "stateMutability": "nonpayable",
      "type": "function"
    },
    {
      "inputs": [],
      "name": "revealed",
      "outputs": [
        {
          "internalType": "bool",
          "name": "",
          "type": "bool"
        }
      ],
      "stateMutability": "view",
      "type": "function"
    },
    {
      "inputs": [
        {
          "internalType": "address",
          "name": "from",
          "type": "address"
        },
        {
          "internalType": "address",
          "name": "to",
          "type": "address"
        },
        {
          "internalType": "uint256",
          "name": "tokenId",
          "type": "uint256"
        }
      ],
      "name": "safeTransferFrom",
      "outputs": [],
      "stateMutability": "nonpayable",
      "type": "function"
    },
    {
      "inputs": [
        {
          "internalType": "address",
          "name": "from",
          "type": "address"
        },
        {
          "internalType": "address",
          "name": "to",
          "type": "address"
        },
        {
          "internalType": "uint256",
          "name": "tokenId",
          "type": "uint256"
        },
        {
          "internalType": "bytes",
          "name": "_data",
          "type": "bytes"
        }
      ],
      "name": "safeTransferFrom",
      "outputs": [],
      "stateMutability": "nonpayable",
      "type": "function"
    },
    {
      "inputs": [
        {
          "internalType": "address",
          "name": "operator",
          "type": "address"
        },
        {
          "internalType": "bool",
          "name": "approved",
          "type": "bool"
        }
      ],
      "name": "setApprovalForAll",
      "outputs": [],
      "stateMutability": "nonpayable",
      "type": "function"
    },
    {
      "inputs": [
        {
          "internalType": "string",
          "name": "_newBaseExtension",
          "type": "string"
        }
      ],
      "name": "setBaseExtension",
      "outputs": [],
      "stateMutability": "nonpayable",
      "type": "function"
    },
    {
      "inputs": [
        {
          "internalType": "uint256",
          "name": "_newmaxMintAmount",
          "type": "uint256"
        }
      ],
      "name": "setmaxMintAmount",
      "outputs": [],
      "stateMutability": "nonpayable",
      "type": "function"
    },
    {
      "inputs": [
        {
          "internalType": "bytes4",
          "name": "interfaceId",
          "type": "bytes4"
        }
      ],
      "name": "supportsInterface",
      "outputs": [
        {
          "internalType": "bool",
          "name": "",
          "type": "bool"
        }
      ],
      "stateMutability": "view",
      "type": "function"
    },
    {
      "inputs": [],
      "name": "symbol",
      "outputs": [
        {
          "internalType": "string",
          "name": "",
          "type": "string"
        }
      ],
      "stateMutability": "view",
      "type": "function"
    },
    {
      "inputs": [
        {
          "internalType": "uint256",
          "name": "index",
          "type": "uint256"
        }
      ],
      "name": "tokenByIndex",
      "outputs": [
        {
          "internalType": "uint256",
          "name": "",
          "type": "uint256"
        }
      ],
      "stateMutability": "view",
      "type": "function"
    },
    {
      "inputs": [
        {
          "internalType": "address",
          "name": "owner",
          "type": "address"
        },
        {
          "internalType": "uint256",
          "name": "index",
          "type": "uint256"
        }
      ],
      "name": "tokenOfOwnerByIndex",
      "outputs": [
        {
          "internalType": "uint256",
          "name": "",
          "type": "uint256"
        }
      ],
      "stateMutability": "view",
      "type": "function"
    },
    {
      "inputs": [
        {
          "internalType": "uint256",
          "name": "tokenId",
          "type": "uint256"
        }
      ],
      "name": "tokenURI",
      "outputs": [
        {
          "internalType": "string",
          "name": "",
          "type": "string"
        }
      ],
      "stateMutability": "view",
      "type": "function"
    },
    {
      "inputs": [],
      "name": "totalSupply",
      "outputs": [
        {
          "internalType": "uint256",
          "name": "",
          "type": "uint256"
        }
      ],
      "stateMutability": "view",
      "type": "function"
    },
    {
      "inputs": [
        {
          "internalType": "address",
          "name": "from",
          "type": "address"
        },
        {
          "internalType": "address",
          "name": "to",
          "type": "address"
        },
        {
          "internalType": "uint256",
          "name": "tokenId",
          "type": "uint256"
        }
      ],
      "name": "transferFrom",
      "outputs": [],
      "stateMutability": "nonpayable",
      "type": "function"
    },
    {
      "inputs": [
        {
          "internalType": "address",
          "name": "newOwner",
          "type": "address"
        }
      ],
      "name": "transferOwnership",
      "outputs": [],
      "stateMutability": "nonpayable",
      "type": "function"
    },
    {
      "inputs": [
        {
          "internalType": "address",
          "name": "_owner",
          "type": "address"
        }
      ],
      "name": "walletOfOwner",
      "outputs": [
        {
          "internalType": "uint256[]",
          "name": "",
          "type": "uint256[]"
        }
      ],
      "stateMutability": "view",
      "type": "function"
    },
    {
      "inputs": [],
      "name": "withdraw",
      "outputs": [],
      "stateMutability": "payable",
      "type": "function"
    }
  ],
  "bytecode": "0x60806040526040518060800160405280604381526020016200584e60439139600b90805190602001906200003592919062000fef565b506040518060400160405280600581526020017f2e6a736f6e000000000000000000000000000000000000000000000000000000815250600c90805190602001906200008392919062000fef565b50600a600d556002600e556000600f60006101000a81548160ff0219169083151502179055506000600f60016101000a81548160ff021916908315150217905550348015620000d157600080fd5b506040518060400160405280601581526020017f546573746520436f6e6578616f20496d706163746f00000000000000000000008152506040518060400160405280600381526020017f494d50000000000000000000000000000000000000000000000000000000000081525081600090805190602001906200015692919062000fef565b5080600190805190602001906200016f92919062000fef565b5050506200019262000186620001d160201b60201c565b620001d960201b60201c565b6000600190505b60058111620001ca57620001b460016200029f60201b60201c565b8080620001c1906200157c565b91505062000199565b5062001859565b600033905090565b6000600a60009054906101000a900473ffffffffffffffffffffffffffffffffffffffff16905081600a60006101000a81548173ffffffffffffffffffffffffffffffffffffffff021916908373ffffffffffffffffffffffffffffffffffffffff1602179055508173ffffffffffffffffffffffffffffffffffffffff168173ffffffffffffffffffffffffffffffffffffffff167f8be0079c531659141344cd1fd0a4f28419497f9722a3daafe3b4186f6b6457e060405160405180910390a35050565b6000620002b16200053b60201b60201c565b9050600f60009054906101000a900460ff1615620002ce57600080fd5b600082118015620002e0575060018211155b62000322576040517f08c379a0000000000000000000000000000000000000000000000000000000008152600401620003199062001337565b60405180910390fd5b600d5482826200033391906200140e565b111562000377576040517f08c379a00000000000000000000000000000000000000000000000000000000081526004016200036e906200139d565b60405180910390fd5b3373ffffffffffffffffffffffffffffffffffffffff163273ffffffffffffffffffffffffffffffffffffffff1614620003e8576040517f08c379a0000000000000000000000000000000000000000000000000000000008152600401620003df9062001315565b60405180910390fd5b620003f86200054860201b60201c565b73ffffffffffffffffffffffffffffffffffffffff163373ffffffffffffffffffffffffffffffffffffffff1614620004c057600e5482601060003373ffffffffffffffffffffffffffffffffffffffff1673ffffffffffffffffffffffffffffffffffffffff168152602001908152602001600020546200047b91906200140e565b1115620004bf576040517f08c379a0000000000000000000000000000000000000000000000000000000008152600401620004b69062001359565b60405180910390fd5b5b620004e033600183620004d491906200140e565b6200057260201b60201c565b601060003373ffffffffffffffffffffffffffffffffffffffff1673ffffffffffffffffffffffffffffffffffffffff168152602001908152602001600020600081548092919062000532906200157c565b91905055505050565b6000600880549050905090565b6000600a60009054906101000a900473ffffffffffffffffffffffffffffffffffffffff16905090565b620005948282604051806020016040528060008152506200059860201b60201c565b5050565b620005aa83836200060660201b60201c565b620005bf60008484846200080060201b60201c565b62000601576040517f08c379a0000000000000000000000000000000000000000000000000000000008152600401620005f890620012d1565b60405180910390fd5b505050565b600073ffffffffffffffffffffffffffffffffffffffff168273ffffffffffffffffffffffffffffffffffffffff16141562000679576040517f08c379a00000000000000000000000000000000000000000000000000000000081526004016200067090620013bf565b60405180910390fd5b6200068a81620009ba60201b60201c565b15620006cd576040517f08c379a0000000000000000000000000000000000000000000000000000000008152600401620006c490620012f3565b60405180910390fd5b620006e16000838362000a2660201b60201c565b6001600360008473ffffffffffffffffffffffffffffffffffffffff1673ffffffffffffffffffffffffffffffffffffffff16815260200190815260200160002060008282546200073391906200140e565b92505081905550816002600083815260200190815260200160002060006101000a81548173ffffffffffffffffffffffffffffffffffffffff021916908373ffffffffffffffffffffffffffffffffffffffff160217905550808273ffffffffffffffffffffffffffffffffffffffff16600073ffffffffffffffffffffffffffffffffffffffff167fddf252ad1be2c89b69c2b068fc378daa952ba7f163c4a11628f55a4df523b3ef60405160405180910390a4620007fc6000838362000b6d60201b60201c565b5050565b60006200082e8473ffffffffffffffffffffffffffffffffffffffff1662000b7260201b620018601760201c565b15620009ad578373ffffffffffffffffffffffffffffffffffffffff1663150b7a0262000860620001d160201b60201c565b8786866040518563ffffffff1660e01b81526004016200088494939291906200127d565b602060405180830381600087803b1580156200089f57600080fd5b505af1925050508015620008d357506040513d601f19601f82011682018060405250810190620008d09190620010b6565b60015b6200095c573d806000811462000906576040519150601f19603f3d011682016040523d82523d6000602084013e6200090b565b606091505b5060008151141562000954576040517f08c379a00000000000000000000000000000000000000000000000000000000081526004016200094b90620012d1565b60405180910390fd5b805181602001fd5b63150b7a0260e01b7bffffffffffffffffffffffffffffffffffffffffffffffffffffffff1916817bffffffffffffffffffffffffffffffffffffffffffffffffffffffff191614915050620009b2565b600190505b949350505050565b60008073ffffffffffffffffffffffffffffffffffffffff166002600084815260200190815260200160002060009054906101000a900473ffffffffffffffffffffffffffffffffffffffff1673ffffffffffffffffffffffffffffffffffffffff1614159050919050565b62000a3e83838362000b9560201b620018831760201c565b600073ffffffffffffffffffffffffffffffffffffffff168373ffffffffffffffffffffffffffffffffffffffff16141562000a8b5762000a858162000b9a60201b60201c565b62000ad3565b8173ffffffffffffffffffffffffffffffffffffffff168373ffffffffffffffffffffffffffffffffffffffff161462000ad25762000ad1838262000be360201b60201c565b5b5b600073ffffffffffffffffffffffffffffffffffffffff168273ffffffffffffffffffffffffffffffffffffffff16141562000b205762000b1a8162000d6060201b60201c565b62000b68565b8273ffffffffffffffffffffffffffffffffffffffff168273ffffffffffffffffffffffffffffffffffffffff161462000b675762000b66828262000ea860201b60201c565b5b5b505050565b505050565b6000808273ffffffffffffffffffffffffffffffffffffffff163b119050919050565b505050565b6008805490506009600083815260200190815260200160002081905550600881908060018154018082558091505060019003906000526020600020016000909190919091505550565b6000600162000bfd8462000f3460201b62000f671760201c565b62000c0991906200146b565b905060006007600084815260200190815260200160002054905081811462000cef576000600660008673ffffffffffffffffffffffffffffffffffffffff1673ffffffffffffffffffffffffffffffffffffffff168152602001908152602001600020600084815260200190815260200160002054905080600660008773ffffffffffffffffffffffffffffffffffffffff1673ffffffffffffffffffffffffffffffffffffffff168152602001908152602001600020600084815260200190815260200160002081905550816007600083815260200190815260200160002081905550505b6007600084815260200190815260200160002060009055600660008573ffffffffffffffffffffffffffffffffffffffff1673ffffffffffffffffffffffffffffffffffffffff16815260200190815260200160002060008381526020019081526020016000206000905550505050565b6000600160088054905062000d7691906200146b565b905060006009600084815260200190815260200160002054905060006008838154811062000dcd577f4e487b7100000000000000000000000000000000000000000000000000000000600052603260045260246000fd5b90600052602060002001549050806008838154811062000e16577f4e487b7100000000000000000000000000000000000000000000000000000000600052603260045260246000fd5b90600052602060002001819055508160096000838152602001908152602001600020819055506009600085815260200190815260200160002060009055600880548062000e8c577f4e487b7100000000000000000000000000000000000000000000000000000000600052603160045260246000fd5b6001900381819060005260206000200160009055905550505050565b600062000ec08362000f3460201b62000f671760201c565b905081600660008573ffffffffffffffffffffffffffffffffffffffff1673ffffffffffffffffffffffffffffffffffffffff168152602001908152602001600020600083815260200190815260200160002081905550806007600084815260200190815260200160002081905550505050565b60008073ffffffffffffffffffffffffffffffffffffffff168273ffffffffffffffffffffffffffffffffffffffff16141562000fa8576040517f08c379a000000000000000000000000000000000000000000000000000000000815260040162000f9f906200137b565b60405180910390fd5b600360008373ffffffffffffffffffffffffffffffffffffffff1673ffffffffffffffffffffffffffffffffffffffff168152602001908152602001600020549050919050565b82805462000ffd9062001546565b90600052602060002090601f0160209004810192826200102157600085556200106d565b82601f106200103c57805160ff19168380011785556200106d565b828001600101855582156200106d579182015b828111156200106c5782518255916020019190600101906200104f565b5b5090506200107c919062001080565b5090565b5b808211156200109b57600081600090555060010162001081565b5090565b600081519050620010b0816200183f565b92915050565b600060208284031215620010c957600080fd5b6000620010d9848285016200109f565b91505092915050565b620010ed81620014a6565b82525050565b60006200110082620013e1565b6200110c8185620013ec565b93506200111e81856020860162001510565b620011298162001628565b840191505092915050565b600062001143603283620013fd565b9150620011508262001639565b604082019050919050565b60006200116a601c83620013fd565b9150620011778262001688565b602082019050919050565b600062001191602583620013fd565b91506200119e82620016b1565b604082019050919050565b6000620011b8602d83620013fd565b9150620011c58262001700565b604082019050919050565b6000620011df601c83620013fd565b9150620011ec826200174f565b602082019050919050565b600062001206602a83620013fd565b9150620012138262001778565b604082019050919050565b60006200122d602783620013fd565b91506200123a82620017c7565b604082019050919050565b600062001254602083620013fd565b9150620012618262001816565b602082019050919050565b620012778162001506565b82525050565b6000608082019050620012946000830187620010e2565b620012a36020830186620010e2565b620012b260408301856200126c565b8181036060830152620012c68184620010f3565b905095945050505050565b60006020820190508181036000830152620012ec8162001134565b9050919050565b600060208201905081810360008301526200130e816200115b565b9050919050565b60006020820190508181036000830152620013308162001182565b9050919050565b600060208201905081810360008301526200135281620011a9565b9050919050565b600060208201905081810360008301526200137481620011d0565b9050919050565b600060208201905081810360008301526200139681620011f7565b9050919050565b60006020820190508181036000830152620013b8816200121e565b9050919050565b60006020820190508181036000830152620013da8162001245565b9050919050565b600081519050919050565b600082825260208201905092915050565b600082825260208201905092915050565b60006200141b8262001506565b9150620014288362001506565b9250827fffffffffffffffffffffffffffffffffffffffffffffffffffffffffffffffff0382111562001460576200145f620015ca565b5b828201905092915050565b6000620014788262001506565b9150620014858362001506565b9250828210156200149b576200149a620015ca565b5b828203905092915050565b6000620014b382620014e6565b9050919050565b60007fffffffff0000000000000000000000000000000000000000000000000000000082169050919050565b600073ffffffffffffffffffffffffffffffffffffffff82169050919050565b6000819050919050565b60005b838110156200153057808201518184015260208101905062001513565b8381111562001540576000848401525b50505050565b600060028204905060018216806200155f57607f821691505b60208210811415620015765762001575620015f9565b5b50919050565b6000620015898262001506565b91507fffffffffffffffffffffffffffffffffffffffffffffffffffffffffffffffff821415620015bf57620015be620015ca565b5b600182019050919050565b7f4e487b7100000000000000000000000000000000000000000000000000000000600052601160045260246000fd5b7f4e487b7100000000000000000000000000000000000000000000000000000000600052602260045260246000fd5b6000601f19601f8301169050919050565b7f4552433732313a207472616e7366657220746f206e6f6e20455243373231526560008201527f63656976657220696d706c656d656e7465720000000000000000000000000000602082015250565b7f4552433732313a20746f6b656e20616c7265616479206d696e74656400000000600082015250565b7f43414e4e4f54204d494e54205448524f554748204120435553544f4d20434f4e60008201527f5452414354000000000000000000000000000000000000000000000000000000602082015250565b7f594f552043414e2754204d494e54204d4f5245205448414e204156414c41424c60008201527f4520544f4b454e20434f554e5400000000000000000000000000000000000000602082015250565b7f6d6178204e465420706572206164647265737320657863656564656400000000600082015250565b7f4552433732313a2062616c616e636520717565727920666f7220746865207a6560008201527f726f206164647265737300000000000000000000000000000000000000000000602082015250565b7f594f552043414e2754204d494e54204d4f5245205448414e204d4158494d554d60008201527f20535550504c5900000000000000000000000000000000000000000000000000602082015250565b7f4552433732313a206d696e7420746f20746865207a65726f2061646472657373600082015250565b6200184a81620014ba565b81146200185657600080fd5b50565b613fe580620018696000396000f3fe6080604052600436106101d85760003560e01c80635c975abb11610102578063a22cb46511610095578063d5abeb0111610064578063d5abeb01146106b6578063da3ef23f146106e1578063e985e9c51461070a578063f2fde38b14610747576101d8565b8063a22cb465146105fc578063b88d4fde14610625578063c66828621461064e578063c87b56dd14610679576101d8565b80637f00c7a6116100d15780637f00c7a6146105615780638da5cb5b1461058a57806395d89b41146105b5578063a0712d68146105e0576101d8565b80635c975abb146104a55780636352211e146104d057806370a082311461050d578063715018a61461054a576101d8565b8063239c70ae1161017a57806342842e0e1161014957806342842e0e146103d7578063438b6300146104005780634f6ccce71461043d578063518302271461047a576101d8565b8063239c70ae1461033c57806323b872dd146103675780632f745c59146103905780633ccfd60b146103cd576101d8565b8063081812fc116101b6578063081812fc1461026e578063095ea7b3146102ab57806318160ddd146102d457806318cae269146102ff576101d8565b806301ffc9a7146101dd57806302329a291461021a57806306fdde0314610243575b600080fd5b3480156101e957600080fd5b5061020460048036038101906101ff9190612cfc565b610770565b604051610211919061329f565b60405180910390f35b34801561022657600080fd5b50610241600480360381019061023c9190612cd3565b6107ea565b005b34801561024f57600080fd5b50610258610883565b60405161026591906132ba565b60405180910390f35b34801561027a57600080fd5b5061029560048036038101906102909190612d8f565b610915565b6040516102a29190613216565b60405180910390f35b3480156102b757600080fd5b506102d260048036038101906102cd9190612c97565b61099a565b005b3480156102e057600080fd5b506102e9610ab2565b6040516102f6919061359c565b60405180910390f35b34801561030b57600080fd5b5061032660048036038101906103219190612b2c565b610abf565b604051610333919061359c565b60405180910390f35b34801561034857600080fd5b50610351610ad7565b60405161035e919061359c565b60405180910390f35b34801561037357600080fd5b5061038e60048036038101906103899190612b91565b610add565b005b34801561039c57600080fd5b506103b760048036038101906103b29190612c97565b610b3d565b6040516103c4919061359c565b60405180910390f35b6103d5610be2565b005b3480156103e357600080fd5b506103fe60048036038101906103f99190612b91565b610cde565b005b34801561040c57600080fd5b5061042760048036038101906104229190612b2c565b610cfe565b604051610434919061327d565b60405180910390f35b34801561044957600080fd5b50610464600480360381019061045f9190612d8f565b610df8565b604051610471919061359c565b60405180910390f35b34801561048657600080fd5b5061048f610e8f565b60405161049c919061329f565b60405180910390f35b3480156104b157600080fd5b506104ba610ea2565b6040516104c7919061329f565b60405180910390f35b3480156104dc57600080fd5b506104f760048036038101906104f29190612d8f565b610eb5565b6040516105049190613216565b60405180910390f35b34801561051957600080fd5b50610534600480360381019061052f9190612b2c565b610f67565b604051610541919061359c565b60405180910390f35b34801561055657600080fd5b5061055f61101f565b005b34801561056d57600080fd5b5061058860048036038101906105839190612d8f565b6110a7565b005b34801561059657600080fd5b5061059f61112d565b6040516105ac9190613216565b60405180910390f35b3480156105c157600080fd5b506105ca611157565b6040516105d791906132ba565b60405180910390f35b6105fa60048036038101906105f59190612d8f565b6111e9565b005b34801561060857600080fd5b50610623600480360381019061061e9190612c5b565b611456565b005b34801561063157600080fd5b5061064c60048036038101906106479190612be0565b61146c565b005b34801561065a57600080fd5b506106636114ce565b60405161067091906132ba565b60405180910390f35b34801561068557600080fd5b506106a0600480360381019061069b9190612d8f565b61155c565b6040516106ad91906132ba565b60405180910390f35b3480156106c257600080fd5b506106cb611638565b6040516106d8919061359c565b60405180910390f35b3480156106ed57600080fd5b5061070860048036038101906107039190612d4e565b61163e565b005b34801561071657600080fd5b50610731600480360381019061072c9190612b55565b6116d4565b60405161073e919061329f565b60405180910390f35b34801561075357600080fd5b5061076e60048036038101906107699190612b2c565b611768565b005b60007f780e9d63000000000000000000000000000000000000000000000000000000007bffffffffffffffffffffffffffffffffffffffffffffffffffffffff1916827bffffffffffffffffffffffffffffffffffffffffffffffffffffffff191614806107e357506107e282611888565b5b9050919050565b6107f261196a565b73ffffffffffffffffffffffffffffffffffffffff1661081061112d565b73ffffffffffffffffffffffffffffffffffffffff1614610866576040517f08c379a000000000000000000000000000000000000000000000000000000000815260040161085d906134fc565b60405180910390fd5b80600f60006101000a81548160ff02191690831515021790555050565b606060008054610892906137fa565b80601f01602080910402602001604051908101604052809291908181526020018280546108be906137fa565b801561090b5780601f106108e05761010080835404028352916020019161090b565b820191906000526020600020905b8154815290600101906020018083116108ee57829003601f168201915b5050505050905090565b600061092082611972565b61095f576040517f08c379a0000000000000000000000000000000000000000000000000000000008152600401610956906134dc565b60405180910390fd5b6004600083815260200190815260200160002060009054906101000a900473ffffffffffffffffffffffffffffffffffffffff169050919050565b60006109a582610eb5565b90508073ffffffffffffffffffffffffffffffffffffffff168373ffffffffffffffffffffffffffffffffffffffff161415610a16576040517f08c379a0000000000000000000000000000000000000000000000000000000008152600401610a0d9061353c565b60405180910390fd5b8073ffffffffffffffffffffffffffffffffffffffff16610a3561196a565b73ffffffffffffffffffffffffffffffffffffffff161480610a645750610a6381610a5e61196a565b6116d4565b5b610aa3576040517f08c379a0000000000000000000000000000000000000000000000000000000008152600401610a9a9061343c565b60405180910390fd5b610aad83836119de565b505050565b6000600880549050905090565b60106020528060005260406000206000915090505481565b600e5481565b610aee610ae861196a565b82611a97565b610b2d576040517f08c379a0000000000000000000000000000000000000000000000000000000008152600401610b249061355c565b60405180910390fd5b610b38838383611b75565b505050565b6000610b4883610f67565b8210610b89576040517f08c379a0000000000000000000000000000000000000000000000000000000008152600401610b80906132dc565b60405180910390fd5b600660008473ffffffffffffffffffffffffffffffffffffffff1673ffffffffffffffffffffffffffffffffffffffff168152602001908152602001600020600083815260200190815260200160002054905092915050565b610bea61196a565b73ffffffffffffffffffffffffffffffffffffffff16610c0861112d565b73ffffffffffffffffffffffffffffffffffffffff1614610c5e576040517f08c379a0000000000000000000000000000000000000000000000000000000008152600401610c55906134fc565b60405180910390fd5b6000610c6861112d565b73ffffffffffffffffffffffffffffffffffffffff1647604051610c8b90613201565b60006040518083038185875af1925050503d8060008114610cc8576040519150601f19603f3d011682016040523d82523d6000602084013e610ccd565b606091505b5050905080610cdb57600080fd5b50565b610cf98383836040518060200160405280600081525061146c565b505050565b60606000610d0b83610f67565b905060008167ffffffffffffffff811115610d4f577f4e487b7100000000000000000000000000000000000000000000000000000000600052604160045260246000fd5b604051908082528060200260200182016040528015610d7d5781602001602082028036833780820191505090505b50905060005b82811015610ded57610d958582610b3d565b828281518110610dce577f4e487b7100000000000000000000000000000000000000000000000000000000600052603260045260246000fd5b6020026020010181815250508080610de59061385d565b915050610d83565b508092505050919050565b6000610e02610ab2565b8210610e43576040517f08c379a0000000000000000000000000000000000000000000000000000000008152600401610e3a9061357c565b60405180910390fd5b60088281548110610e7d577f4e487b7100000000000000000000000000000000000000000000000000000000600052603260045260246000fd5b90600052602060002001549050919050565b600f60019054906101000a900460ff1681565b600f60009054906101000a900460ff1681565b6000806002600084815260200190815260200160002060009054906101000a900473ffffffffffffffffffffffffffffffffffffffff169050600073ffffffffffffffffffffffffffffffffffffffff168173ffffffffffffffffffffffffffffffffffffffff161415610f5e576040517f08c379a0000000000000000000000000000000000000000000000000000000008152600401610f559061347c565b60405180910390fd5b80915050919050565b60008073ffffffffffffffffffffffffffffffffffffffff168273ffffffffffffffffffffffffffffffffffffffff161415610fd8576040517f08c379a0000000000000000000000000000000000000000000000000000000008152600401610fcf9061345c565b60405180910390fd5b600360008373ffffffffffffffffffffffffffffffffffffffff1673ffffffffffffffffffffffffffffffffffffffff168152602001908152602001600020549050919050565b61102761196a565b73ffffffffffffffffffffffffffffffffffffffff1661104561112d565b73ffffffffffffffffffffffffffffffffffffffff161461109b576040517f08c379a0000000000000000000000000000000000000000000000000000000008152600401611092906134fc565b60405180910390fd5b6110a56000611ddc565b565b6110af61196a565b73ffffffffffffffffffffffffffffffffffffffff166110cd61112d565b73ffffffffffffffffffffffffffffffffffffffff1614611123576040517f08c379a000000000000000000000000000000000000000000000000000000000815260040161111a906134fc565b60405180910390fd5b80600e8190555050565b6000600a60009054906101000a900473ffffffffffffffffffffffffffffffffffffffff16905090565b606060018054611166906137fa565b80601f0160208091040260200160405190810160405280929190818152602001828054611192906137fa565b80156111df5780601f106111b4576101008083540402835291602001916111df565b820191906000526020600020905b8154815290600101906020018083116111c257829003601f168201915b5050505050905090565b60006111f3610ab2565b9050600f60009054906101000a900460ff161561120f57600080fd5b600082118015611220575060018211155b61125f576040517f08c379a00000000000000000000000000000000000000000000000000000000081526004016112569061339c565b60405180910390fd5b600d54828261126e91906136ba565b11156112af576040517f08c379a00000000000000000000000000000000000000000000000000000000081526004016112a69061349c565b60405180910390fd5b3373ffffffffffffffffffffffffffffffffffffffff163273ffffffffffffffffffffffffffffffffffffffff161461131d576040517f08c379a00000000000000000000000000000000000000000000000000000000081526004016113149061337c565b60405180910390fd5b61132561112d565b73ffffffffffffffffffffffffffffffffffffffff163373ffffffffffffffffffffffffffffffffffffffff16146113e757600e5482601060003373ffffffffffffffffffffffffffffffffffffffff1673ffffffffffffffffffffffffffffffffffffffff168152602001908152602001600020546113a591906136ba565b11156113e6576040517f08c379a00000000000000000000000000000000000000000000000000000000081526004016113dd906133bc565b60405180910390fd5b5b6113fd336001836113f891906136ba565b611ea2565b601060003373ffffffffffffffffffffffffffffffffffffffff1673ffffffffffffffffffffffffffffffffffffffff168152602001908152602001600020600081548092919061144d9061385d565b91905055505050565b61146861146161196a565b8383611ec0565b5050565b61147d61147761196a565b83611a97565b6114bc576040517f08c379a00000000000000000000000000000000000000000000000000000000081526004016114b39061355c565b60405180910390fd5b6114c88484848461202d565b50505050565b600c80546114db906137fa565b80601f0160208091040260200160405190810160405280929190818152602001828054611507906137fa565b80156115545780601f1061152957610100808354040283529160200191611554565b820191906000526020600020905b81548152906001019060200180831161153757829003601f168201915b505050505081565b606061156782611972565b6115a6576040517f08c379a000000000000000000000000000000000000000000000000000000000815260040161159d9061351c565b60405180910390fd5b600b80546115b3906137fa565b80601f01602080910402602001604051908101604052809291908181526020018280546115df906137fa565b801561162c5780601f106116015761010080835404028352916020019161162c565b820191906000526020600020905b81548152906001019060200180831161160f57829003601f168201915b50505050509050919050565b600d5481565b61164661196a565b73ffffffffffffffffffffffffffffffffffffffff1661166461112d565b73ffffffffffffffffffffffffffffffffffffffff16146116ba576040517f08c379a00000000000000000000000000000000000000000000000000000000081526004016116b1906134fc565b60405180910390fd5b80600c90805190602001906116d0929190612950565b5050565b6000600560008473ffffffffffffffffffffffffffffffffffffffff1673ffffffffffffffffffffffffffffffffffffffff16815260200190815260200160002060008373ffffffffffffffffffffffffffffffffffffffff1673ffffffffffffffffffffffffffffffffffffffff16815260200190815260200160002060009054906101000a900460ff16905092915050565b61177061196a565b73ffffffffffffffffffffffffffffffffffffffff1661178e61112d565b73ffffffffffffffffffffffffffffffffffffffff16146117e4576040517f08c379a00000000000000000000000000000000000000000000000000000000081526004016117db906134fc565b60405180910390fd5b600073ffffffffffffffffffffffffffffffffffffffff168173ffffffffffffffffffffffffffffffffffffffff161415611854576040517f08c379a000000000000000000000000000000000000000000000000000000000815260040161184b9061331c565b60405180910390fd5b61185d81611ddc565b50565b6000808273ffffffffffffffffffffffffffffffffffffffff163b119050919050565b505050565b60007f80ac58cd000000000000000000000000000000000000000000000000000000007bffffffffffffffffffffffffffffffffffffffffffffffffffffffff1916827bffffffffffffffffffffffffffffffffffffffffffffffffffffffff1916148061195357507f5b5e139f000000000000000000000000000000000000000000000000000000007bffffffffffffffffffffffffffffffffffffffffffffffffffffffff1916827bffffffffffffffffffffffffffffffffffffffffffffffffffffffff1916145b80611963575061196282612089565b5b9050919050565b600033905090565b60008073ffffffffffffffffffffffffffffffffffffffff166002600084815260200190815260200160002060009054906101000a900473ffffffffffffffffffffffffffffffffffffffff1673ffffffffffffffffffffffffffffffffffffffff1614159050919050565b816004600083815260200190815260200160002060006101000a81548173ffffffffffffffffffffffffffffffffffffffff021916908373ffffffffffffffffffffffffffffffffffffffff160217905550808273ffffffffffffffffffffffffffffffffffffffff16611a5183610eb5565b73ffffffffffffffffffffffffffffffffffffffff167f8c5be1e5ebec7d5bd14f71427d1e84f3dd0314c0f7b2291e5b200ac8c7c3b92560405160405180910390a45050565b6000611aa282611972565b611ae1576040517f08c379a0000000000000000000000000000000000000000000000000000000008152600401611ad89061341c565b60405180910390fd5b6000611aec83610eb5565b90508073ffffffffffffffffffffffffffffffffffffffff168473ffffffffffffffffffffffffffffffffffffffff161480611b5b57508373ffffffffffffffffffffffffffffffffffffffff16611b4384610915565b73ffffffffffffffffffffffffffffffffffffffff16145b80611b6c5750611b6b81856116d4565b5b91505092915050565b8273ffffffffffffffffffffffffffffffffffffffff16611b9582610eb5565b73ffffffffffffffffffffffffffffffffffffffff1614611beb576040517f08c379a0000000000000000000000000000000000000000000000000000000008152600401611be29061333c565b60405180910390fd5b600073ffffffffffffffffffffffffffffffffffffffff168273ffffffffffffffffffffffffffffffffffffffff161415611c5b576040517f08c379a0000000000000000000000000000000000000000000000000000000008152600401611c52906133dc565b60405180910390fd5b611c668383836120f3565b611c716000826119de565b6001600360008573ffffffffffffffffffffffffffffffffffffffff1673ffffffffffffffffffffffffffffffffffffffff1681526020019081526020016000206000828254611cc19190613710565b925050819055506001600360008473ffffffffffffffffffffffffffffffffffffffff1673ffffffffffffffffffffffffffffffffffffffff1681526020019081526020016000206000828254611d1891906136ba565b92505081905550816002600083815260200190815260200160002060006101000a81548173ffffffffffffffffffffffffffffffffffffffff021916908373ffffffffffffffffffffffffffffffffffffffff160217905550808273ffffffffffffffffffffffffffffffffffffffff168473ffffffffffffffffffffffffffffffffffffffff167fddf252ad1be2c89b69c2b068fc378daa952ba7f163c4a11628f55a4df523b3ef60405160405180910390a4611dd7838383612207565b505050565b6000600a60009054906101000a900473ffffffffffffffffffffffffffffffffffffffff16905081600a60006101000a81548173ffffffffffffffffffffffffffffffffffffffff021916908373ffffffffffffffffffffffffffffffffffffffff1602179055508173ffffffffffffffffffffffffffffffffffffffff168173ffffffffffffffffffffffffffffffffffffffff167f8be0079c531659141344cd1fd0a4f28419497f9722a3daafe3b4186f6b6457e060405160405180910390a35050565b611ebc82826040518060200160405280600081525061220c565b5050565b8173ffffffffffffffffffffffffffffffffffffffff168373ffffffffffffffffffffffffffffffffffffffff161415611f2f576040517f08c379a0000000000000000000000000000000000000000000000000000000008152600401611f26906133fc565b60405180910390fd5b80600560008573ffffffffffffffffffffffffffffffffffffffff1673ffffffffffffffffffffffffffffffffffffffff16815260200190815260200160002060008473ffffffffffffffffffffffffffffffffffffffff1673ffffffffffffffffffffffffffffffffffffffff16815260200190815260200160002060006101000a81548160ff0219169083151502179055508173ffffffffffffffffffffffffffffffffffffffff168373ffffffffffffffffffffffffffffffffffffffff167f17307eab39ab6107e8899845ad3d59bd9653f200f220920489ca2b5937696c3183604051612020919061329f565b60405180910390a3505050565b612038848484611b75565b61204484848484612267565b612083576040517f08c379a000000000000000000000000000000000000000000000000000000000815260040161207a906132fc565b60405180910390fd5b50505050565b60007f01ffc9a7000000000000000000000000000000000000000000000000000000007bffffffffffffffffffffffffffffffffffffffffffffffffffffffff1916827bffffffffffffffffffffffffffffffffffffffffffffffffffffffff1916149050919050565b6120fe838383611883565b600073ffffffffffffffffffffffffffffffffffffffff168373ffffffffffffffffffffffffffffffffffffffff1614156121415761213c816123fe565b612180565b8173ffffffffffffffffffffffffffffffffffffffff168373ffffffffffffffffffffffffffffffffffffffff161461217f5761217e8382612447565b5b5b600073ffffffffffffffffffffffffffffffffffffffff168273ffffffffffffffffffffffffffffffffffffffff1614156121c3576121be816125b4565b612202565b8273ffffffffffffffffffffffffffffffffffffffff168273ffffffffffffffffffffffffffffffffffffffff16146122015761220082826126f7565b5b5b505050565b505050565b6122168383612776565b6122236000848484612267565b612262576040517f08c379a0000000000000000000000000000000000000000000000000000000008152600401612259906132fc565b60405180910390fd5b505050565b60006122888473ffffffffffffffffffffffffffffffffffffffff16611860565b156123f1578373ffffffffffffffffffffffffffffffffffffffff1663150b7a026122b161196a565b8786866040518563ffffffff1660e01b81526004016122d39493929190613231565b602060405180830381600087803b1580156122ed57600080fd5b505af192505050801561231e57506040513d601f19601f8201168201806040525081019061231b9190612d25565b60015b6123a1573d806000811461234e576040519150601f19603f3d011682016040523d82523d6000602084013e612353565b606091505b50600081511415612399576040517f08c379a0000000000000000000000000000000000000000000000000000000008152600401612390906132fc565b60405180910390fd5b805181602001fd5b63150b7a0260e01b7bffffffffffffffffffffffffffffffffffffffffffffffffffffffff1916817bffffffffffffffffffffffffffffffffffffffffffffffffffffffff1916149150506123f6565b600190505b949350505050565b6008805490506009600083815260200190815260200160002081905550600881908060018154018082558091505060019003906000526020600020016000909190919091505550565b6000600161245484610f67565b61245e9190613710565b9050600060076000848152602001908152602001600020549050818114612543576000600660008673ffffffffffffffffffffffffffffffffffffffff1673ffffffffffffffffffffffffffffffffffffffff168152602001908152602001600020600084815260200190815260200160002054905080600660008773ffffffffffffffffffffffffffffffffffffffff1673ffffffffffffffffffffffffffffffffffffffff168152602001908152602001600020600084815260200190815260200160002081905550816007600083815260200190815260200160002081905550505b6007600084815260200190815260200160002060009055600660008573ffffffffffffffffffffffffffffffffffffffff1673ffffffffffffffffffffffffffffffffffffffff16815260200190815260200160002060008381526020019081526020016000206000905550505050565b600060016008805490506125c89190613710565b905060006009600084815260200190815260200160002054905060006008838154811061261e577f4e487b7100000000000000000000000000000000000000000000000000000000600052603260045260246000fd5b906000526020600020015490508060088381548110612666577f4e487b7100000000000000000000000000000000000000000000000000000000600052603260045260246000fd5b9060005260206000200181905550816009600083815260200190815260200160002081905550600960008581526020019081526020016000206000905560088054806126db577f4e487b7100000000000000000000000000000000000000000000000000000000600052603160045260246000fd5b6001900381819060005260206000200160009055905550505050565b600061270283610f67565b905081600660008573ffffffffffffffffffffffffffffffffffffffff1673ffffffffffffffffffffffffffffffffffffffff168152602001908152602001600020600083815260200190815260200160002081905550806007600084815260200190815260200160002081905550505050565b600073ffffffffffffffffffffffffffffffffffffffff168273ffffffffffffffffffffffffffffffffffffffff1614156127e6576040517f08c379a00000000000000000000000000000000000000000000000000000000081526004016127dd906134bc565b60405180910390fd5b6127ef81611972565b1561282f576040517f08c379a00000000000000000000000000000000000000000000000000000000081526004016128269061335c565b60405180910390fd5b61283b600083836120f3565b6001600360008473ffffffffffffffffffffffffffffffffffffffff1673ffffffffffffffffffffffffffffffffffffffff168152602001908152602001600020600082825461288b91906136ba565b92505081905550816002600083815260200190815260200160002060006101000a81548173ffffffffffffffffffffffffffffffffffffffff021916908373ffffffffffffffffffffffffffffffffffffffff160217905550808273ffffffffffffffffffffffffffffffffffffffff16600073ffffffffffffffffffffffffffffffffffffffff167fddf252ad1be2c89b69c2b068fc378daa952ba7f163c4a11628f55a4df523b3ef60405160405180910390a461294c60008383612207565b5050565b82805461295c906137fa565b90600052602060002090601f01602090048101928261297e57600085556129c5565b82601f1061299757805160ff19168380011785556129c5565b828001600101855582156129c5579182015b828111156129c45782518255916020019190600101906129a9565b5b5090506129d291906129d6565b5090565b5b808211156129ef5760008160009055506001016129d7565b5090565b6000612a06612a01846135dc565b6135b7565b905082815260208101848484011115612a1e57600080fd5b612a298482856137b8565b509392505050565b6000612a44612a3f8461360d565b6135b7565b905082815260208101848484011115612a5c57600080fd5b612a678482856137b8565b509392505050565b600081359050612a7e81613f53565b92915050565b600081359050612a9381613f6a565b92915050565b600081359050612aa881613f81565b92915050565b600081519050612abd81613f81565b92915050565b600082601f830112612ad457600080fd5b8135612ae48482602086016129f3565b91505092915050565b600082601f830112612afe57600080fd5b8135612b0e848260208601612a31565b91505092915050565b600081359050612b2681613f98565b92915050565b600060208284031215612b3e57600080fd5b6000612b4c84828501612a6f565b91505092915050565b60008060408385031215612b6857600080fd5b6000612b7685828601612a6f565b9250506020612b8785828601612a6f565b9150509250929050565b600080600060608486031215612ba657600080fd5b6000612bb486828701612a6f565b9350506020612bc586828701612a6f565b9250506040612bd686828701612b17565b9150509250925092565b60008060008060808587031215612bf657600080fd5b6000612c0487828801612a6f565b9450506020612c1587828801612a6f565b9350506040612c2687828801612b17565b925050606085013567ffffffffffffffff811115612c4357600080fd5b612c4f87828801612ac3565b91505092959194509250565b60008060408385031215612c6e57600080fd5b6000612c7c85828601612a6f565b9250506020612c8d85828601612a84565b9150509250929050565b60008060408385031215612caa57600080fd5b6000612cb885828601612a6f565b9250506020612cc985828601612b17565b9150509250929050565b600060208284031215612ce557600080fd5b6000612cf384828501612a84565b91505092915050565b600060208284031215612d0e57600080fd5b6000612d1c84828501612a99565b91505092915050565b600060208284031215612d3757600080fd5b6000612d4584828501612aae565b91505092915050565b600060208284031215612d6057600080fd5b600082013567ffffffffffffffff811115612d7a57600080fd5b612d8684828501612aed565b91505092915050565b600060208284031215612da157600080fd5b6000612daf84828501612b17565b91505092915050565b6000612dc483836131e3565b60208301905092915050565b612dd981613744565b82525050565b6000612dea8261364e565b612df4818561367c565b9350612dff8361363e565b8060005b83811015612e30578151612e178882612db8565b9750612e228361366f565b925050600181019050612e03565b5085935050505092915050565b612e4681613756565b82525050565b6000612e5782613659565b612e61818561368d565b9350612e718185602086016137c7565b612e7a81613933565b840191505092915050565b6000612e9082613664565b612e9a81856136a9565b9350612eaa8185602086016137c7565b612eb381613933565b840191505092915050565b6000612ecb602b836136a9565b9150612ed682613944565b604082019050919050565b6000612eee6032836136a9565b9150612ef982613993565b604082019050919050565b6000612f116026836136a9565b9150612f1c826139e2565b604082019050919050565b6000612f346025836136a9565b9150612f3f82613a31565b604082019050919050565b6000612f57601c836136a9565b9150612f6282613a80565b602082019050919050565b6000612f7a6025836136a9565b9150612f8582613aa9565b604082019050919050565b6000612f9d602d836136a9565b9150612fa882613af8565b604082019050919050565b6000612fc0601c836136a9565b9150612fcb82613b47565b602082019050919050565b6000612fe36024836136a9565b9150612fee82613b70565b604082019050919050565b60006130066019836136a9565b915061301182613bbf565b602082019050919050565b6000613029602c836136a9565b915061303482613be8565b604082019050919050565b600061304c6038836136a9565b915061305782613c37565b604082019050919050565b600061306f602a836136a9565b915061307a82613c86565b604082019050919050565b60006130926029836136a9565b915061309d82613cd5565b604082019050919050565b60006130b56027836136a9565b91506130c082613d24565b604082019050919050565b60006130d86020836136a9565b91506130e382613d73565b602082019050919050565b60006130fb602c836136a9565b915061310682613d9c565b604082019050919050565b600061311e6020836136a9565b915061312982613deb565b602082019050919050565b6000613141602f836136a9565b915061314c82613e14565b604082019050919050565b60006131646021836136a9565b915061316f82613e63565b604082019050919050565b600061318760008361369e565b915061319282613eb2565b600082019050919050565b60006131aa6031836136a9565b91506131b582613eb5565b604082019050919050565b60006131cd602c836136a9565b91506131d882613f04565b604082019050919050565b6131ec816137ae565b82525050565b6131fb816137ae565b82525050565b600061320c8261317a565b9150819050919050565b600060208201905061322b6000830184612dd0565b92915050565b60006080820190506132466000830187612dd0565b6132536020830186612dd0565b61326060408301856131f2565b81810360608301526132728184612e4c565b905095945050505050565b600060208201905081810360008301526132978184612ddf565b905092915050565b60006020820190506132b46000830184612e3d565b92915050565b600060208201905081810360008301526132d48184612e85565b905092915050565b600060208201905081810360008301526132f581612ebe565b9050919050565b6000602082019050818103600083015261331581612ee1565b9050919050565b6000602082019050818103600083015261333581612f04565b9050919050565b6000602082019050818103600083015261335581612f27565b9050919050565b6000602082019050818103600083015261337581612f4a565b9050919050565b6000602082019050818103600083015261339581612f6d565b9050919050565b600060208201905081810360008301526133b581612f90565b9050919050565b600060208201905081810360008301526133d581612fb3565b9050919050565b600060208201905081810360008301526133f581612fd6565b9050919050565b6000602082019050818103600083015261341581612ff9565b9050919050565b600060208201905081810360008301526134358161301c565b9050919050565b600060208201905081810360008301526134558161303f565b9050919050565b6000602082019050818103600083015261347581613062565b9050919050565b6000602082019050818103600083015261349581613085565b9050919050565b600060208201905081810360008301526134b5816130a8565b9050919050565b600060208201905081810360008301526134d5816130cb565b9050919050565b600060208201905081810360008301526134f5816130ee565b9050919050565b6000602082019050818103600083015261351581613111565b9050919050565b6000602082019050818103600083015261353581613134565b9050919050565b6000602082019050818103600083015261355581613157565b9050919050565b600060208201905081810360008301526135758161319d565b9050919050565b60006020820190508181036000830152613595816131c0565b9050919050565b60006020820190506135b160008301846131f2565b92915050565b60006135c16135d2565b90506135cd828261382c565b919050565b6000604051905090565b600067ffffffffffffffff8211156135f7576135f6613904565b5b61360082613933565b9050602081019050919050565b600067ffffffffffffffff82111561362857613627613904565b5b61363182613933565b9050602081019050919050565b6000819050602082019050919050565b600081519050919050565b600081519050919050565b600081519050919050565b6000602082019050919050565b600082825260208201905092915050565b600082825260208201905092915050565b600081905092915050565b600082825260208201905092915050565b60006136c5826137ae565b91506136d0836137ae565b9250827fffffffffffffffffffffffffffffffffffffffffffffffffffffffffffffffff03821115613705576137046138a6565b5b828201905092915050565b600061371b826137ae565b9150613726836137ae565b925082821015613739576137386138a6565b5b828203905092915050565b600061374f8261378e565b9050919050565b60008115159050919050565b60007fffffffff0000000000000000000000000000000000000000000000000000000082169050919050565b600073ffffffffffffffffffffffffffffffffffffffff82169050919050565b6000819050919050565b82818337600083830152505050565b60005b838110156137e55780820151818401526020810190506137ca565b838111156137f4576000848401525b50505050565b6000600282049050600182168061381257607f821691505b60208210811415613826576138256138d5565b5b50919050565b61383582613933565b810181811067ffffffffffffffff8211171561385457613853613904565b5b80604052505050565b6000613868826137ae565b91507fffffffffffffffffffffffffffffffffffffffffffffffffffffffffffffffff82141561389b5761389a6138a6565b5b600182019050919050565b7f4e487b7100000000000000000000000000000000000000000000000000000000600052601160045260246000fd5b7f4e487b7100000000000000000000000000000000000000000000000000000000600052602260045260246000fd5b7f4e487b7100000000000000000000000000000000000000000000000000000000600052604160045260246000fd5b6000601f19601f8301169050919050565b7f455243373231456e756d657261626c653a206f776e657220696e646578206f7560008201527f74206f6620626f756e6473000000000000000000000000000000000000000000602082015250565b7f4552433732313a207472616e7366657220746f206e6f6e20455243373231526560008201527f63656976657220696d706c656d656e7465720000000000000000000000000000602082015250565b7f4f776e61626c653a206e6577206f776e657220697320746865207a65726f206160008201527f6464726573730000000000000000000000000000000000000000000000000000602082015250565b7f4552433732313a207472616e736665722066726f6d20696e636f72726563742060008201527f6f776e6572000000000000000000000000000000000000000000000000000000602082015250565b7f4552433732313a20746f6b656e20616c7265616479206d696e74656400000000600082015250565b7f43414e4e4f54204d494e54205448524f554748204120435553544f4d20434f4e60008201527f5452414354000000000000000000000000000000000000000000000000000000602082015250565b7f594f552043414e2754204d494e54204d4f5245205448414e204156414c41424c60008201527f4520544f4b454e20434f554e5400000000000000000000000000000000000000602082015250565b7f6d6178204e465420706572206164647265737320657863656564656400000000600082015250565b7f4552433732313a207472616e7366657220746f20746865207a65726f2061646460008201527f7265737300000000000000000000000000000000000000000000000000000000602082015250565b7f4552433732313a20617070726f766520746f2063616c6c657200000000000000600082015250565b7f4552433732313a206f70657261746f7220717565727920666f72206e6f6e657860008201527f697374656e7420746f6b656e0000000000000000000000000000000000000000602082015250565b7f4552433732313a20617070726f76652063616c6c6572206973206e6f74206f7760008201527f6e6572206e6f7220617070726f76656420666f7220616c6c0000000000000000602082015250565b7f4552433732313a2062616c616e636520717565727920666f7220746865207a6560008201527f726f206164647265737300000000000000000000000000000000000000000000602082015250565b7f4552433732313a206f776e657220717565727920666f72206e6f6e657869737460008201527f656e7420746f6b656e0000000000000000000000000000000000000000000000602082015250565b7f594f552043414e2754204d494e54204d4f5245205448414e204d4158494d554d60008201527f20535550504c5900000000000000000000000000000000000000000000000000602082015250565b7f4552433732313a206d696e7420746f20746865207a65726f2061646472657373600082015250565b7f4552433732313a20617070726f76656420717565727920666f72206e6f6e657860008201527f697374656e7420746f6b656e0000000000000000000000000000000000000000602082015250565b7f4f776e61626c653a2063616c6c6572206973206e6f7420746865206f776e6572600082015250565b7f4552433732314d657461646174613a2055524920717565727920666f72206e6f60008201527f6e6578697374656e7420746f6b656e0000000000000000000000000000000000602082015250565b7f4552433732313a20617070726f76616c20746f2063757272656e74206f776e6560008201527f7200000000000000000000000000000000000000000000000000000000000000602082015250565b50565b7f4552433732313a207472616e736665722063616c6c6572206973206e6f74206f60008201527f776e6572206e6f7220617070726f766564000000000000000000000000000000602082015250565b7f455243373231456e756d657261626c653a20676c6f62616c20696e646578206f60008201527f7574206f6620626f756e64730000000000000000000000000000000000000000602082015250565b613f5c81613744565b8114613f6757600080fd5b50565b613f7381613756565b8114613f7e57600080fd5b50565b613f8a81613762565b8114613f9557600080fd5b50565b613fa1816137ae565b8114613fac57600080fd5b5056fea26469706673582212202fe0b35d91a2163ba4b1dfc48c507f15fcd26a56ce3b50bf07628a7b4a44129a64736f6c63430008040033697066733a2f2f516d51594b585355587676316a47554779757a4a6873534652616765413742726a3765554a78436b6870564a6d362f6d657461646174612e6a736f6e",
  "linkReferences": {},
  "deployedLinkReferences": {}
}